:100000000C945D000C9485000C9485000C94850084
:100010000C9485000C9485000C9485000C9485004C
:100020000C9485000C9485000C9485000C9485003C
:100030000C9485000C9485000C9485000C9485002C
:100040000C9425030C9485000C94F3020C94CD02BF
:100050000C9485000C9485000C9485000C9485000C
:100060000C9485000C9485000000000024002700FB
:100070002A0000000000250028002B0004040404CE
:100080000404040402020202020203030303030342
:10009000010204081020408001020408102001021F
:1000A00004081020000000080002010000030407FB
:1000B00000000000000000006F0311241FBECFEFFE
:1000C000D8E0DEBFCDBF11E0A0E0B1E0E0E8FFE0A6
:1000D00002C005900D92A631B107D9F721E0A6E143
:1000E000B1E001C01D92A73DB207E1F710E0CDE5F8
:1000F000D0E004C02197FE010E94B307CC35D107A0
:10010000C9F70E94B2030C94BE070C940000E7EA02
:10011000F0E02491E3E9F0E09491EFE7F0E0E4917E
:10012000EE2309F43BC0222339F1233091F038F457
:100130002130A9F0223001F524B52F7D12C02730DF
:1001400091F02830A1F02430B9F4209180002F7D67
:1001500003C0209180002F77209380000DC024B52C
:100160002F7724BD09C02091B0002F7703C02091C4
:10017000B0002F7D2093B000F0E0EE0FFF1FEE588F
:10018000FF4FA591B4912FB7F894EC91811103C062
:1001900090959E2301C09E2B9C932FBF0895CF92D4
:1001A000DF92EF92FF920F931F93CF93DF936C0137
:1001B0007A018B01C0E0D0E0CE15DF0589F0D801CF
:1001C0006D918D01D601ED91FC910190F081E02DB2
:1001D000C6010995892B11F47E0102C02196ECCF4E
:1001E000C701DF91CF911F910F91FF90EF90DF90AA
:1001F000CF900895FC01918D828D981761F0828DCA
:10020000DF01A80FB11D5D968C91928D9F5F9F734A
:10021000928F90E008958FEF9FEF0895FC01918DEC
:10022000828D981731F0828DE80FF11D858D90E059
:1002300008958FEF9FEF0895FC01918D228D892FF6
:1002400090E0805C9F4F821B91098F7399270895DE
:1002500082E291E00E941C0121E0892B09F420E058
:10026000822F0895FC01848DDF01A80FB11DA35AD0
:10027000BF4F2C91848D90E001968F739927848FC6
:10028000A689B7892C93A089B1898C9180648C93BD
:10029000938D848D981306C00288F389E02D8081A8
:1002A0008F7D80830895EF92FF920F931F93CF93DA
:1002B000DF93EC0181E0888F9B8D8C8D981305C0B6
:1002C000E889F989808185FD24C0F62E0B8D10E028
:1002D0000F5F1F4F0F731127E02E8C8DE8120CC09B
:1002E0000FB607FCFACFE889F989808185FFF5CF41
:1002F000CE010E943201F1CF8B8DFE01E80FF11D7E
:10030000E35AFF4FF0820B8FEA89FB89808180627C
:1003100007C0EE89FF896083E889F989808180645C
:10032000808381E090E0DF91CF911F910F91FF904A
:10033000EF900895CF93DF93EC01888D8823C9F067
:10034000EA89FB89808185FD05C0A889B9898C91DE
:1003500086FD0FC00FB607FCF5CF808185FFF2CF79
:10036000A889B9898C9185FFEDCFCE010E94320119
:10037000E7CFDF91CF91089580E090E0892B29F0BD
:100380000E94280181110C9400000895CF93DF93FF
:1003900090E0FC01E057FF4F2491FC01E458FF4F2F
:1003A0008491882361F190E0880F991FFC01E8593E
:1003B000FF4FC591D491FC01EE58FF4FA591B49128
:1003C000611109C09FB7F8948881209582238883A2
:1003D000EC912E230BC0623061F49FB7F894388102
:1003E000822F809583238883EC912E2B2C939FBFA3
:1003F00006C08FB7F894E8812E2B28838FBFDF913A
:10040000CF9108958E3008F08E508770806480936D
:100410007C0080917A00806480937A0080917A00D9
:1004200086FDFCCF809178002091790090E0922B9E
:1004300008953FB7F89480911B0190911C01A09101
:100440001D01B0911E0126B5A89B05C02F3F19F0D4
:100450000196A11DB11D3FBFBA2FA92F982F882744
:10046000820F911DA11DB11DBC01CD0142E0660F9F
:10047000771F881F991F4A95D1F70895009769F053
:10048000FC0101900020E9F73197AF01481B590B9F
:10049000BC0182E291E00C94CF0080E090E00895EE
:1004A0008F929F92AF92BF92CF92DF92EF92FF9284
:1004B0000F931F93CF93DF93CDB7DEB7A1970FB6FE
:1004C000F894DEBF0FBECDBF6C01990FEE08FF0898
:1004D000F7FE31C0E0912201F09123010190F081FB
:1004E000E02D6DE282E291E009958C01222733270D
:1004F000A9012C193D094E095F0919A2CE01819667
:100500007C019AE0892E912CA12CB12CCA01B90151
:10051000A50194010E948105605DF70162937F014E
:10052000211531054105510589F7CF010E943E0291
:10053000800F911F1DC0A701960119A28E010F5DAA
:100540001F4F8AE0C82ED12CE12CF12CCA01B90131
:10055000A70196010E948105605DF80162938F01F9
:10056000211531054105510589F7CF010E943E0251
:10057000A1960FB6F894DEBF0FBECDBFDF91CF912D
:100580001F910F91FF90EF90DF90CF90BF90AF90B1
:100590009F908F9008950E94B9071F920F920FB6F7
:1005A0000F9211242F933F934F935F936F937F93F9
:1005B0008F939F93AF93BF93EF93FF9382E291E06A
:1005C0000E943201FF91EF91BF91AF919F918F9166
:1005D0007F916F915F914F913F912F910F900FBE3F
:1005E0000F901F9018951F920F920FB60F92112423
:1005F0002F938F939F93EF93FF93E0913201F091AC
:1006000033018081E0913801F091390182FD12C0FF
:10061000908180913B018F5F8F7320913C01821705
:1006200051F0E0913B01F0E0EE5DFE4F958F80933D
:100630003B0101C08081FF91EF919F918F912F919C
:100640000F900FBE0F901F9018951F920F920FB62C
:100650000F9211242F933F938F939F93AF93BF9348
:100660008091170190911801A0911901B0911A0180
:100670003091160123E0230F2D3720F40196A11DA0
:10068000B11D05C026E8230F0296A11DB11D2093C0
:1006900016018093170190931801A0931901B0934C
:1006A0001A0180911B0190911C01A0911D01B09134
:1006B0001E010196A11DB11D80931B0190931C0189
:1006C000A0931D01B0931E01BF91AF919F918F9197
:1006D0003F912F910F900FBE0F901F901895E2E25F
:1006E000F1E01382128288EE93E0A0E0B0E0848310
:1006F0009583A683B78384E091E09183808385EC22
:1007000090E09587848784EC90E09787868780ECDB
:1007100090E0918B808B81EC90E0938B828B82ECCC
:1007200090E0958B848B86EC90E0978B868B118E76
:10073000128E138E148EEFEBF1E080E090E0A0E8D3
:10074000BFE380839183A283B38384839583A6834D
:10075000B7838CEE91E5A8EBBDE380879187A287F4
:10076000B3870895CF93DF9300D000D0CDB7DEB725
:10077000789484B5826084BD84B5816084BD85B57C
:10078000826085BD85B5816085BD80916E00816088
:1007900080936E001092810080918100826080932E
:1007A0008100809181008160809381008091800030
:1007B0008160809380008091B10084608093B1005B
:1007C0008091B00081608093B00080917A00846055
:1007D00080937A0080917A00826080937A00809181
:1007E0007A00816080937A0080917A00806880939B
:1007F0007A001092C10060E08FE00E94C60160E0C4
:1008000080E10E94C601E0913201F091330182E063
:100810008083E0912E01F0912F011082E091300150
:10082000F09131018FEC808310923A01E091360112
:10083000F091370186E08083E0913401F091350139
:10084000808180618083E0913401F0913501808165
:1008500088608083E0913401F09135018081806867
:100860008083E0913401F091350180818F7D808318
:1008700007EA10E08FE00E940202853F21E0920724
:1008800014F084EF91E07C0197FF02C0E12CF12C81
:10089000C7010E94500280E191E00E943E028091D7
:1008A000C3019091C401A091C501B091C601898393
:1008B0009A83AB83BC832091BF013091C0014091EA
:1008C000C1015091C201BC01CD010E94A4059B0150
:1008D000AC0169817A818B819C810E9410062B0179
:1008E0003C016093D3017093D4018093D501909320
:1008F000D6018090CF019090D001A090D101B0900E
:10090000D201B701FF0C880B990B0E94BA06A50112
:1009100094010E94A3059B01AC01C301B2010E9496
:1009200046079B01AC01C501B4010E94A4056B01FF
:100930007C016093CB017093CC018093CD019093A7
:10094000CE01A301920160E070E080E89FE30E9485
:10095000A30529813A814B815C810E9446072B01C6
:100960003C01A7019601C501B4010E94A3059F7730
:100970002091C7013091C8014091C9015091CA012D
:100980000E9446079B01AC01C301B2010E94A4056D
:100990006093C3017093C4018093C5019093C60115
:1009A000C092CF01D092D001E092D101F092D20159
:1009B000C701B6010E948206709321016093200155
:1009C000CB010E94500280E191E00E943E028091A2
:1009D0002001909121019C012053310921303043A5
:1009E00010F480931F01D0901F01ED2CF12C61E0D9
:1009F00083E00E94C601E114F10411F480E005C017
:100A0000BFEFEB16F10421F481E00E94870043C0A0
:100A1000F80184918330F9F048F48130B9F08230E4
:100A2000A1F584B5806284BDD8BC35C08730E9F0BB
:100A3000883019F1843049F580918000806280937C
:100A40008000F0928B00E0928A0025C084B5806817
:100A500084BDD7BC20C080918000806880938000D6
:100A6000F0928900E092880016C08091B000806802
:100A70008093B000D092B3000EC08091B00080622D
:100A80008093B000D092B40006C0F0E8EF16F104F5
:100A90000CF0BACFB3CF80E10E9402020E94500254
:100AA00080E191E00E943E0282E191E00E943E02DC
:100AB0000E9419024B015C018AE0C82ED12CE12C66
:100AC000F12C0E941902DC01CB0188199909AA09AD
:100AD000BB09883E9340A105B10558F021E0C21A38
:100AE000D108E108F10848EE840E43E0941EA11CF1
:100AF000B11CC114D104E104F10419F70E94BC0136
:100B0000B9CEA1E21A2EAA1BBB1BFD010DC0AA1F64
:100B1000BB1FEE1FFF1FA217B307E407F50720F066
:100B2000A21BB30BE40BF50B661F771F881F991FE1
:100B30001A9469F760957095809590959B01AC012A
:100B4000BD01CF0108955058BB27AA270E94BB05BD
:100B50000C940C070E94FE0638F00E94050720F056
:100B600039F49F3F19F426F40C94FB060EF4E0953B
:100B7000E7FB0C94F506E92F0E941D0758F3BA17FE
:100B8000620773078407950720F079F4A6F50C94A3
:100B90003F070EF4E0950B2EBA2FA02D0B01B901E3
:100BA00090010C01CA01A0011124FF27591B99F0E3
:100BB000593F50F4503E68F11A16F040A22F232FEF
:100BC000342F4427585FF3CF469537952795A7953F
:100BD000F0405395C9F77EF41F16BA0B620B730BE6
:100BE000840BBAF09150A1F0FF0FBB1F661F771F57
:100BF000881FC2F70EC0BA0F621F731F841F48F40C
:100C0000879577956795B795F7959E3F08F0B0CF94
:100C10009395880F08F09927EE0F9795879508957B
:100C20000E9424060C940C070E94050758F00E94AD
:100C3000FE0640F029F45F3F29F00C94F5065111AF
:100C40000C9440070C94FB060E941D0768F399233F
:100C5000B1F3552391F3951B550BBB27AA276217B8
:100C60007307840738F09F5F5F4F220F331F441FC5
:100C7000AA1FA9F335D00E2E3AF0E0E832D09150F9
:100C80005040E695001CCAF72BD0FE2F29D0660FE6
:100C9000771F881FBB1F261737074807AB07B0E829
:100CA00009F0BB0B802DBF01FF2793585F4F3AF02F
:100CB0009E3F510578F00C94F5060C9440075F3F79
:100CC000E4F3983ED4F3869577956795B795F795B5
:100CD0009F5FC9F7880F911D9695879597F908959D
:100CE000E1E0660F771F881FBB1F62177307840739
:100CF000BA0720F0621B730B840BBA0BEE1F88F748
:100D0000E09508950E9489066894B1110C944007FB
:100D100008950E94250788F09F5798F0B92F9927CA
:100D2000B751B0F0E1F0660F771F881F991F1AF0D6
:100D3000BA95C9F714C0B13091F00E943F07B1E0F5
:100D400008950C943F07672F782F8827B85F39F0F4
:100D5000B93FCCF3869577956795B395D9F73EF46F
:100D600090958095709561957F4F8F4F9F4F089517
:100D7000E89409C097FB3EF4909580957095619535
:100D80007F4F8F4F9F4F9923A9F0F92F96E9BB27EB
:100D90009395F695879577956795B795F111F8CF67
:100DA000FAF4BB0F11F460FF1BC06F5F7F4F8F4FD2
:100DB0009F4F16C0882311F096E911C0772321F0C8
:100DC0009EE8872F762F05C0662371F096E8862F60
:100DD00070E060E02AF09A95660F771F881FDAF7B7
:100DE000880F9695879597F9089597F99F6780E8FA
:100DF00070E060E008959FEF80EC089500240A946D
:100E00001616170618060906089500240A941216E5
:100E10001306140605060895092E0394000C11F418
:100E2000882352F0BB0F40F4BF2B11F460FF04C0C5
:100E30006F5F7F4F8F4F9F4F089557FD9058440F1E
:100E4000551F59F05F3F71F04795880F97FB991F29
:100E500061F09F3F79F087950895121613061406E6
:100E6000551FF2CF4695F1DF08C016161706180673
:100E7000991FF1CF86957105610508940895E8944E
:100E8000BB2766277727CB0197F908950E9459075A
:100E90000C940C070E94FE0638F00E94050720F013
:100EA000952311F00C94F5060C94FB0611240C9478
:100EB00040070E941D0770F3959FC1F3950F50E006
:100EC000551F629FF001729FBB27F00DB11D639FFC
:100ED000AA27F00DB11DAA1F649F6627B00DA11DA2
:100EE000661F829F2227B00DA11D621F739FB00D48
:100EF000A11D621F839FA00D611D221F749F3327B8
:100F0000A00D611D231F849F600D211D822F762F50
:100F10006A2F11249F5750409AF0F1F088234AF02D
:100F2000EE0FFF1FBB1F661F771F881F9150504099
:100F3000A9F79E3F510580F00C94F5060C944007EC
:100F40005F3FE4F3983ED4F3869577956795B79520
:100F5000F795E7959F5FC1F7FE2B880F911D96953A
:100F6000879597F90895EE0FFF1F0590F491E02DF6
:100F7000099481E090E0F8940C94BE07F894FFCFB8
:100F8000000000005301CF001C01FA000E019A017D
:060F90002C000D0A000018
:107E0000112484B714BE81FFF0D085E080938100F7
:107E100082E08093C00088E18093C10086E0809377
:107E2000C20080E18093C4008EE0C9D0259A86E02C
:107E300020E33CEF91E0309385002093840096BBD3
:107E4000B09BFECF1D9AA8958150A9F7CC24DD24C4
:107E500088248394B5E0AB2EA1E19A2EF3E0BF2EE7
:107E6000A2D0813461F49FD0082FAFD0023811F036
:107E7000013811F484E001C083E08DD089C08234E0
:107E800011F484E103C0853419F485E0A6D080C0E4
:107E9000853579F488D0E82EFF2485D0082F10E0AE
:107EA000102F00270E291F29000F111F8ED06801E7
:107EB0006FC0863521F484E090D080E0DECF843638
:107EC00009F040C070D06FD0082F6DD080E0C81688
:107ED00080E7D80618F4F601B7BEE895C0E0D1E017
:107EE00062D089930C17E1F7F0E0CF16F0E7DF06D8
:107EF00018F0F601B7BEE89568D007B600FCFDCFD4
:107F0000A601A0E0B1E02C9130E011968C91119780
:107F100090E0982F8827822B932B1296FA010C0160
:107F200087BEE89511244E5F5F4FF1E0A038BF0790
:107F300051F7F601A7BEE89507B600FCFDCF97BE46
:107F4000E89526C08437B1F42ED02DD0F82E2BD052
:107F50003CD0F601EF2C8F010F5F1F4F84911BD097
:107F6000EA94F801C1F70894C11CD11CFA94CF0C13
:107F7000D11C0EC0853739F428D08EE10CD085E9AC
:107F80000AD08FE07ACF813511F488E018D01DD067
:107F900080E101D065CF982F8091C00085FFFCCF94
:107FA0009093C60008958091C00087FFFCCF809118
:107FB000C00084FD01C0A8958091C6000895E0E648
:107FC000F0E098E1908380830895EDDF803219F02E
:107FD00088E0F5DFFFCF84E1DECF1F93182FE3DFCA
:107FE0001150E9F7F2DF1F91089580E0E8DFEE27F6
:047FF000FF270994CA
:027FFE00040479
:0400000300007E007B
:00000001FF