:100000000C942A000C9447000C9447000C94470071
:100010000C9447000C9447000C9447000C94470044
:100020000C9447000C9447000C9447000C94470034
:100030000C9447000C9447000C9447000C94470024
:100040000C9447000C9447000C9447000C94470014
:100050000C94470011241FBECFE5D8E0DEBFCDBF12
:1000600010E0A0E6B0E0ECE8F8E002C005900D92E8
:10007000A037B107D9F710E0A0E7B0E001C01D92AA
:10008000A539B107E1F70E949A030C9444040C943B
:100090000000DF93CF9300D0CDB7DEB7A2E3B0E08E
:1000A000E2E3F0E08081806F8C93A2E3B0E0E2E3D2
:1000B000F0E0808184608C93A1E3B0E0E1E3F0E0C4
:1000C00080818F708C93E0E3F0E08081807F8A8371
:1000D000A2E3B0E0E2E3F0E080818B7F8C93A2E3C7
:1000E000B0E0E2E3F0E0808184608C93E0E3F0E054
:1000F0008081807F8983A2E3B0E0E2E3F0E0808149
:100100008B7F8C9389818595859585958595898348
:100110009A818981892B0F900F90CF91DF9108955B
:10012000DF93CF9300D000D0CDB7DEB78C83E2E36E
:10013000F0E080818F7089838C81807F8B838C81BC
:10014000882F90E082959295907F9827807F9827BE
:100150008A83E2E3F0E09B818981892B8083A2E39B
:10016000B0E0E2E3F0E0808184608C93A2E3B0E051
:10017000E2E3F0E080818B7F8C93E2E3F0E09A8110
:100180008981892B8083A2E3B0E0E2E3F0E0808103
:1001900084608C93A2E3B0E0E2E3F0E080818B7FA7
:1001A0008C930F900F900F900F90CF91DF91089547
:1001B000DF93CF930F92CDB7DEB78983E2E3F0E010
:1001C00089818083A2E3B0E0E2E3F0E08081846093
:1001D0008C93A2E3B0E0E2E3F0E080818B7F8C932C
:1001E0000F90CF91DF910895DF93CF930F92CDB70A
:1001F000DEB7A2E3B0E0E2E3F0E080818E7F8C9393
:10020000A2E3B0E0E2E3F0E0808182608C930E94A0
:1002100049008983FE0131968081882354F3A2E34B
:10022000B0E0E2E3F0E080818D7F8C93E1E3F0E0E9
:100230008FEF80830F90CF91DF910895DF93CF935D
:10024000CDB7DEB7E1E3F0E08FEF8083E1E3F0E0EC
:100250008FEF8083A2E3B0E0E2E3F0E080818E7F65
:100260008C93A2E3B0E0E2E3F0E080818D7F8C9399
:10027000A2E3B0E0E2E3F0E080818B7F8C93A2E325
:10028000B0E0E2E3F0E0808184608C93A2E3B0E030
:10029000E2E3F0E0808180628C93A2E3B0E0E2E3ED
:1002A000F0E080818B7F8C930E94F40088E20E94B2
:1002B00090000E94F400A2E3B0E0E2E3F0E080816D
:1002C0008E7F8C938CE00E9490000E94F400A2E349
:1002D000B0E0E2E3F0E080818E7F8C9386E00E94C4
:1002E00090000E94F400CF91DF910895DF93CF93A7
:1002F000CDB7DEB7A2E3B0E0E2E3F0E080818E7F2D
:100300008C9382E00E9490000E94F400CF91DF91D4
:100310000895DF93CF9300D00F92CDB7DEB78A83D5
:100320006B838A81882F90E00197002496958795AA
:100330000794969587950794982F802D982F8B81F9
:10034000890F81588983A2E3B0E0E2E3F0E0808185
:100350008E7F8C9389810E9490000E94F4000F9000
:100360000F900F90CF91DF910895DF93CF93CDB78A
:10037000DEB7A2E3B0E0E2E3F0E080818E7F8C9311
:1003800081E00E9490000E94F400CF91DF910895D7
:10039000DF93CF930F92CDB7DEB78983A2E3B0E0AE
:1003A000E2E3F0E0808181608C9389810E9490007B
:1003B0000E94F4000F90CF91DF910895DF93CF93C7
:1003C00000D00F92CDB7DEB79B838A8319820EC00F
:1003D0008981282F30E08A819B81FC01E20FF31F85
:1003E00080810E94C80189818F5F89838981282F3C
:1003F00030E08A819B81FC01E20FF31F808188231A
:1004000039F70F900F900F90CF91DF910895EF92F1
:10041000FF920F931F93DF93CF9300D000D000D0B3
:10042000CDB7DEB769837A838B839C8320917D006F
:1004300030917E0040917F00509180008091890032
:1004400090918A00A0918B00B0918C0079018A0173
:10045000E81AF90A0A0B1B0BD801C7018093910017
:1004600090939200A0939300B093940080917D00AC
:1004700090917E00A0917F00B091800080938900D0
:1004800090938A00A0938B00B0938C008091910090
:1004900090919200A0919300B09194009E838D83DF
:1004A0000D811E8111233CF48D819E819095819553
:1004B0009F4F9E838D83ED80FE809701442737FDFB
:1004C0004095542F89819A81AB81BC81821B930B0B
:1004D000A40BB50B8093850090938600A0938700B2
:1004E000B09388008091600090916100A0916200BB
:1004F000B091630020918500309186004091870083
:1005000050918800BC01CD010E94E803DC01CB01C1
:100510008093700090937100A0937200B093730069
:10052000209185003091860040918700509188008D
:100530008091810090918200A0918300B09184000D
:1005400079018A01E81AF90A0A0B1B0BD801C701C5
:1005500020916400309165004091660050916700E1
:10056000BC01CD010E94E803DC01CB0128E230E0B0
:1005700040E050E0BC01CD010E94E803DC01CB016A
:100580008093780090937900A0937A00B0937B00D9
:100590008091680090916900A0916A00B0916B0011
:1005A00029E130E040E050E0BC01CD010E94E803C9
:1005B000DC01CB01209185003091860040918700BD
:1005C00050918800BC01CD010E94E803DC01CB0101
:1005D00028EE33E040E050E0BC01CD010E9407046A
:1005E000DA01C9019C01AD01809174009091750000
:1005F000A0917600B0917700820F931FA41FB51FC2
:100600008093740090937500A0937600B093770068
:1006100020917000309171004091720050917300F0
:100620008091780090917900A0917A00B0917B0040
:10063000280F391F4A1F5B1F80917400909175002D
:10064000A0917600B0917700280F391F4A1F5B1FD9
:1006500080918D0090918E00A0918F00B0919000BC
:10066000820F931FA41FB51F80938D0090938E005F
:10067000A0938F00B093900080918D0090918E0098
:10068000A0918F00B091900080340FE1900700E0BE
:10069000A00700E0B00764F08FE39FE1A0E0B0E0C6
:1006A00080938D0090938E00A0938F00B093900064
:1006B00080918D0090918E00A0918F00B09190005C
:1006C000181619061A061B0664F081E090E0A0E0F7
:1006D000B0E080938D0090938E00A0938F00B09334
:1006E0009000EAE4F0E080918D0090918E00A0915E
:1006F0008F00B091900091838083809185009091CC
:100700008600A0918700B09188008093810090932B
:100710008200A0938300B093840026960FB6F894CD
:10072000DEBF0FBECDBFCF91DF911F910F91FF9024
:10073000EF900895DF93CF93CDB7DEB727970FB62D
:10074000F894DEBF0FBECDBF10927D0010927E00E8
:1007500010927F0010928000E7E3F0E01082E8E35F
:10076000F0E08FEF8083E1E3F0E080EF8083A2E3AD
:10077000B0E0E2E3F0E0808180648C93A4E5B0E037
:10078000E4E5F0E080818C93ABE5B0E0EBE5F0E0F0
:10079000808180628C93E5E4F0E087E08083E4E48C
:1007A000F0E08CE38083E9E5F0E080E48083EFE42F
:1007B000F0E082EA8083EEE4F0E089E1808327962E
:1007C0000FB6F894DEBF0FBECDBFCF91DF91089575
:1007D000629FD001739FF001829FE00DF11D649F25
:1007E000E00DF11D929FF00D839FF00D749FF00DB1
:1007F000659FF00D9927729FB00DE11DF91F639F52
:10080000B00DE11DF91FBD01CF011124089597FB23
:10081000092E05260ED057FD04D014D00AD0001C96
:1008200038F450954095309521953F4F4F4F5F4F8D
:100830000895F6F790958095709561957F4F8F4F4D
:100840009F4F0895A1E21A2EAA1BBB1BFD010DC0EC
:10085000AA1FBB1FEE1FFF1FA217B307E407F50770
:1008600020F0A21BB30BE40BF50B661F771F881F4C
:10087000991F1A9469F760957095809590959B01E2
:0C088000AC01BD01CF010895F894FFCF3A
:10088C00080000000A000000010000000500000044
:00000001FF
