:100000000C9467000C948F000C948F000C948F005C
:100010000C948F000C948F000C94EA050C948F00C4
:100020000C948F000C948F000C948F000C948F0014
:100030000C948F000C948F000C948F000C948F0004
:100040000C9490030C948F000C9470020C944A0250
:100050000C948F000C948F000C948F000C948F00E4
:100060000C948F000C948F00A90AA90AA90AB80A57
:10007000580B660BA90AA90AB80A580B0000000021
:10008000240027002A0000000000250028002B0083
:10009000040404040404040402020202020203032E
:1000A0000303030301020408102040800102040836
:1000B00010200102040810200000000800020100C6
:1000C0000003040700000000000000002D0C1124B4
:1000D0001FBECFEFD8E0DEBFCDBF11E0A0E0B1E0A2
:1000E000E6ECF2E202C005900D92A833B107D9F711
:1000F00022E0A8E3B1E001C01D92A436B207E1F707
:1001000010E0C7E6D0E004C02197FE010E9419105C
:10011000C636D107C9F70E945A0C0C9461110C9491
:100120000000E091B701F091B80182E08083E09196
:10013000B301F091B4011082E091B501F091B601E4
:100140008FEC80831092BF01E091BB01F091BC0164
:1001500086E08083E091B901F091BA0180818061ED
:100160008083E091B901F091BA0180818860808339
:10017000E091B901F091BA01808180688083E091BB
:10018000B901F091BA0180818F7D8083C0E4C09372
:100190007C0080917A00806480937A0080917A005C
:1001A00086FDFCCF809178002091790090E0922B21
:1001B0006C01092E000CEE08FF0897FF14C0E091B7
:1001C000A701F091A8010190F081E02D6DE287EA8E
:1001D00091E0099566277727CB016C197D098E0977
:1001E0009F094AE003C04AE0C701B6010E943F03ED
:1001F00042E050E066E171E087EA91E00E94CA02C5
:100200008AE090E00E948B08C2CFE1EBF0E02491FD
:10021000EDE9F0E08491882399F090E0880F991F30
:10022000FC01E458FF4FA591B491FC01EA57FF4F40
:10023000859194918FB7F894EC91E22BEC938FBF5A
:1002400081E00E94F70283E090E00E948B0880E04A
:100250000E94F70283E090E00E948B08F1CF80912A
:100260003A01882349F10E94D905C0916C010E948E
:100270007007CC23A1F30FB6F8940F92E0917101AF
:10028000F0917201C681D781CE0102960E94ED05E0
:100290008091A60181508093A60180913A018150FE
:1002A00080933A010F900FBE8F89988D0E94ED08C0
:1002B000CE010E94ED08D3CF80917E01823010F0F4
:1002C0000E94B3060E944002CACF0F931F9300E022
:1002D00010E022E040E850E069E171E085E091E063
:1002E0000E945D0E21E040E850E06FE171E081E99D
:1002F00090E00E945D0E1F910F910895FC01918D79
:10030000828D981761F0828DDF01A80FB11D5D9677
:100310008C91928D9F5F9F73928F90E008958FEFE5
:100320009FEF0895FC01918D828D981731F0828D99
:10033000E80FF11D858D90E008958FEF9FEF0895F0
:10034000FC01918D228D892F90E0805C9F4F821B54
:1003500091098F739927089587EA91E00E94A0017F
:1003600021E0892B09F420E0822F0895FC01848D7F
:10037000DF01A80FB11DA35ABF4F2C91848D90E0CF
:1003800001968F739927848FA689B7892C93A089AA
:10039000B1898C9180648C93938D848D981306C061
:1003A0000288F389E02D80818F7D80830895EF920C
:1003B000FF920F931F93CF93DF93EC0181E0888F1F
:1003C0009B8D8C8D981305C0E889F989808185FD06
:1003D00024C0F62E0B8D10E00F5F1F4F0F731127F7
:1003E000E02E8C8DE8120CC00FB607FCFACFE8891E
:1003F000F989808185FFF5CFCE010E94B601F1CF4A
:100400008B8DFE01E80FF11DE35AFF4FF0820B8F39
:10041000EA89FB898081806207C0EE89FF89608359
:10042000E889F98980818064808381E090E0DF91B0
:10043000CF911F910F91FF90EF900895CF93DF938D
:10044000EC01888D8823C9F0EA89FB89808185FDCC
:1004500005C0A889B9898C9186FD0FC00FB607FC2D
:10046000F5CF808185FFF2CFA889B9898C9185FF6E
:10047000EDCFCE010E94B601E7CFDF91CF91089575
:1004800080E090E0892B29F00E94AC0181110C944E
:10049000000008951F920F920FB60F9211242F9310
:1004A0003F934F935F936F937F938F939F93AF93FC
:1004B000BF93EF93FF9387EA91E00E94B601FF910B
:1004C000EF91BF91AF919F918F917F916F915F91CC
:1004D0004F913F912F910F900FBE0F901F90189545
:1004E0001F920F920FB60F9211242F938F939F9309
:1004F000EF93FF93E091B701F091B8018081E09113
:10050000BD01F091BE0182FD12C090818091C001B9
:100510008F5F8F732091C101821751F0E091C0016C
:10052000F0E0E955FE4F958F8093C00101C08081B6
:10053000FF91EF919F918F912F910F900FBE0F9090
:100540001F901895259A2D9A2FEF80E792E0215061
:1005500080409040E1F700C000001D9AF5CFE09187
:100560006101F09162018081811103C08FEF9FEFE3
:100570000CC0E0916101F09162010580F681E02DEF
:100580000680F781E02D8281938190933C018093D6
:100590003B010895CF92DF92EF92FF920F931F934A
:1005A000CF93DF936C017A018B01C0E0D0E0CE15D0
:1005B000DF0589F0D8016D918D01D601ED91FC9197
:1005C0000190F081E02DC6010995892B11F47E017F
:1005D00002C02196ECCFC701DF91CF911F910F91FF
:1005E000FF90EF90DF90CF9008950E944C11E5ECC2
:1005F000F0E02491E1EBF0E09491EDE9F0E0E4919A
:10060000EE2309F43BC0222339F1233091F038F472
:100610002130A9F0223001F524B52F7D12C02730FA
:1006200091F02830A1F02430B9F4209180002F7D82
:1006300003C0209180002F77209380000DC024B547
:100640002F7724BD09C02091B0002F7703C02091DF
:10065000B0002F7D2093B000F0E0EE0FFF1FEA57AF
:10066000FF4FA591B4912FB7F894EC91811103C07D
:1006700090959E2301C09E2B9C932FBF08958F922F
:100680009F92AF92BF920F931F93CF93DF93CDB7FB
:10069000DEB7A1970FB6F894DEBF0FBECDBF19A28B
:1006A000423008F44AE08E010F5D1F4F842E912CDA
:1006B000A12CB12CA50194010E94F70FE62FB901DE
:1006C000CA0101501109EA3014F4E05D01C0E95C8F
:1006D000D801EC93232B242B252B61F70115110551
:1006E00071F0F80101900020E9F73197AF01401B4C
:1006F000510BB80187EA91E00E94CA0202C080E073
:1007000090E0A1960FB6F894DEBF0FBECDBFDF918B
:10071000CF911F910F91BF90AF909F908F900895B0
:100720001F920F920FB60F9211242F933F938F9326
:100730009F93AF93BF938091490290914A02A091F9
:100740004B02B0914C023091480223E0230F2D3729
:1007500020F40196A11DB11D05C026E8230F0296C5
:10076000A11DB11D209348028093490290934A0233
:10077000A0934B02B0934C028091440290914502A9
:10078000A0914602B09147020196A11DB11D809330
:10079000440290934502A0934602B0934702BF9152
:1007A000AF919F918F913F912F910F900FBE0F901E
:1007B0001F9018950F920FB6F8940F921F92112464
:1007C0002F923F924F925F926F927F928F929F9261
:1007D000AF92BF92CF92DF92EF92FF920F931F934F
:1007E0002F933F934F935F936F937F938F939F9339
:1007F000AF93BF93CF93DF93EF93FF93A091A401A7
:10080000B091A5010DB60D920EB60D9213BE80915A
:1008100059018111F1C080915C0190915D010196B7
:1008200090935D0180935C01009799F5209161019F
:100830003091620140915F015091600150936201DB
:10084000409361013093600120935F0120915E012C
:100850002F5F20935E01E0916101F09162012081A0
:10086000211107C02FEF3FEF30933C0120933B0154
:1008700010C0E0916101F09162010580F681E02DE8
:100880000680F781E02D2281338130933C01209353
:100890003B0120913B0130913C018217930710F4FA
:1008A00020E09AC020E019E0E0916101F09162013E
:1008B0003081311107C08FEF9FEF90933C018093FF
:1008C0003B018AC0E0916101F09162010580F681EF
:1008D000E02D0680F781E02D428153818417950732
:1008E00028F450933C0140933B0176C0AF014E5F2A
:1008F0005F4FA285B38564817581E680F780EB0147
:10090000FD82EC82C681D7817B836A8311966D91CB
:100910007C9112976417750721F41296DC93CE939D
:100920001197138612863C9131503C93A489B58966
:100930001097F1F066857785E088F188EB01FD82FC
:10094000EC82C089D1897B836A831196ED90FC90FB
:100950001297BF01645F7F4FE616F70621F41296E7
:10096000DC93CE931197158A148A3C9131503C93B5
:10097000A6893091A2013A1710F4A093A2011A9F00
:10098000D0011124BD0162587E4F7B01DB0111961D
:10099000CD91DC911297D583C4836C817D8177835F
:1009A00066836C817D81DB0113965C934E93129775
:1009B0005D834C83F386E286E70138813F5F3883AD
:1009C000A091A401B091A501468956963C91431788
:1009D00008F46ACF21E068CFE091A401F091A5016D
:1009E000E689D9E0ED9FF0011124E258FE4F8081A5
:1009F000823040F021E006C0809138018F5F809303
:100A0000380120E080913901811103C0222309F4CB
:100A100066C080915901882321F081E080933901DB
:100A20005EC010923901A091A401B091A501E0919E
:100A3000A401F091A5012D913C918789908D821799
:100A40009307A8F08091A4019091A5018091A40141
:100A50009091A501259A2D9A2FEF67EA71E6215012
:100A600060407040E1F700C000001D9AF5CF809112
:100A7000A20169E001C08150482F50E0649F9001BD
:100A8000659F300D1124F901E258FE4F90819923A2
:100A900091F3A181B28112960D90BC91A02DB283E9
:100AA000A1832F573E4FA217B30731F412962D9111
:100AB0003C9113973283218399E0949FF001959F95
:100AC000F00D1124E258FE4F0180F281E02D2681C5
:100AD00037813093A5012093A4018093A201A091B6
:100AE000A401B091A501CD91CDBFDD91DEBFFF91F5
:100AF000EF91DF91CF91BF91AF919F918F917F91B6
:100B00006F915F914F913F912F911F910F91FF90A6
:100B1000EF90DF90CF90BF90AF909F908F907F909D
:100B20006F905F904F903F902F901F900F900FBE4F
:100B30000F900895FC010FB6F8940F9280915C011C
:100B400090915D01DB012D913C912F3FBFEF3B0761
:100B500001F1B0915E01A08141815281BA1719F073
:100B600084179507C0F4DC01A41BB50BA217B307CB
:100B700090F4481B590B240F351FDB012D933C9338
:100B800080915E01808380915C0190915D019283F0
:100B9000818380E001C081E00F900FBE08950FB601
:100BA000F8940F9280915C0190915D010F900FBEBF
:100BB0000895809159018F5F8093590108950FB670
:100BC000F8940F92FC01928D0F900FBE81E091116D
:100BD00080E008950E94DA031895CF93DF93FC011B
:100BE000A085B1858281938124813581EC013D838B
:100BF0002C83C481D5819B838A8311968D919C918E
:100C000012978E179F0721F41296DC93CE931197BB
:100C1000118610868C9181508C93DF91CF9108952D
:100C2000CF93DF939C01FB01DC011196CD91DC9108
:100C30001297D383C2838C819D81958384838C8119
:100C40009D81DC0113967C936E9312977D836C8358
:100C500031872087F90180818F5F8083DF91CF9179
:100C600008950F931F93CF93DF93DC011596ED91B9
:100C7000FC911697C681D7818E01045F1F4FC80172
:100C80000E94ED0580915901811114C00A5011098B
:100C9000C8010E94ED059E898091A201891710F478
:100CA0009093A201B9E09B9FC0011124B801825822
:100CB0009E4F03C0B80185E791E00E941006E091C5
:100CC000A401F091A5019E898689891720F481E00D
:100CD0008093390101C080E0DF91CF911F910F9186
:100CE0000895EF92FF920F931F93CF93DF93EC0140
:100CF0000FB6F8940F921E8D7C0181E1E80EF11C75
:100D000001E011165CF48989882341F0C7010E9433
:100D100031068111009339011150F3CF8FEF8E8F7F
:100D20000F900FBE0FB6F8940F921D8D7E0188E0D4
:100D3000E80EF11C01E011165CF48885882341F06F
:100D4000C7010E9431068111009339011150F3CF80
:100D50008FEF8D8F0F900FBEDF91CF911F910F916D
:100D6000FF90EF9008950F920FB6F8940F921F9294
:100D700011242F923F924F925F926F927F928F92A7
:100D80009F92AF92BF92CF92DF92EF92FF920F931A
:100D90001F932F933F934F935F936F937F938F9303
:100DA0009F93AF93BF93CF93DF93EF93FF93A09164
:100DB000A401B091A5010DB60D920EB60D928091D1
:100DC0005901882321F081E0809339015EC010929F
:100DD0003901A091A401B091A501E091A401F09185
:100DE000A5012D913C918789908D82179307A8F0DA
:100DF0008091A4019091A5018091A4019091A501F9
:100E0000259A2D9A2FEF87EA91E621508040904055
:100E1000E1F700C000001D9AF5CF8091A20169E0C2
:100E200001C08150482F50E0649F9001659F300DB4
:100E30001124F901E258FE4F9081992391F3A18189
:100E4000B28112960D90BC91A02DB283A1832F5731
:100E50003E4FA217B30731F412962D913C91139790
:100E60003283218399E0949FF001959FF00D112426
:100E7000E258FE4F0180F281E02D268137813093C8
:100E8000A5012093A4018093A201A091A401B09197
:100E9000A501CD91CDBFDD91DEBFFF91EF91DF9137
:100EA000CF91BF91AF919F918F917F916F915F9102
:100EB0004F913F912F911F910F91FF90EF90DF90F5
:100EC000CF90BF90AF909F908F907F906F905F90EA
:100ED0004F903F902F901F900F900FBE0F9008954E
:100EE0008F929F92AF92BF92CF92DF92EF92FF923A
:100EF0000F931F93CF93DF930FB6F8940F928091C7
:100F0000590181508093590180915901882311F032
:100F100080E0F2C08091A6018823D1F3C0E0D0E048
:100F200029E0F22EEE24E39480917501882351F19B
:100F3000E0917A01F0917B01C681D781CE010C96B8
:100F40000E94ED058E010E5F1F4FC8010E94ED0546
:100F50009E898091A201891710F49093A201F99EB5
:100F6000C0011124B80182589E4F0E941006E091E2
:100F7000A401F091A5019E8986899817A8F2E092B4
:100F80003901D2CFCD2B11F00E94AF02E090380191
:100F9000EE2009F4A9C089E0B82EAA24A394CC2499
:100FA000CA94DC2C8091590181118CC0C0915C01E4
:100FB000D0915D012196D0935D01C0935C01209793
:100FC000B9F4809161019091620120915F013091AB
:100FD00060013093620120936101909360018093DE
:100FE0005F0180915E018F5F80935E010E94AF027E
:100FF00080913B0190913C01F12CC817D90708F46E
:1010000051C0E0916101F09162018081811105C0C0
:10101000D0923C01C0923B0145C0E0916101F0914A
:1010200062010580F681E02D06811781D8011296B4
:101030008D919C911397C817D90728F490933C0180
:1010400080933B012FC04801B2E08B0E911CC4017C
:101050000E94ED05F80184899589892B21F0C8014A
:101060000C960E94ED05D80156968C919091A201A4
:10107000981710F48093A201B89EC0011124B40106
:1010800082589E4F0E941006E091A401F091A501A4
:10109000D80156969C918689981708F4B2CFFF2400
:1010A000F394AFCFE091A401F091A501E689BE9E33
:1010B000F0011124E258FE4F8081823048F0FF2475
:1010C000F39406C0809138018F5F80933801F12C32
:1010D00080913901811101C0F110A0923901EA9487
:1010E000E11060CF1092380180913901882309F412
:1010F0000FCF0E94B30681E00F900FBEDF91CF911A
:101100001F910F91FF90EF90DF90CF90BF90AF9025
:101110009F908F900895CF93DF9300D0CDB7DEB727
:10112000009719F40E94B3060DC089839A830E9428
:10113000D90560E089819A810E9494090E94700714
:10114000882381F30F900F90DF91CF9108950F9333
:101150001F93CF93DF938C01FB01808191818F3F9F
:101160002FEF920721F4E801AF81B8850EC0D801B6
:10117000139612962D913C911397E901488159815C
:101180008417950710F0D901F4CF12968D919C9198
:10119000139793838283EC01FD83EC83B583A4834F
:1011A0001396FC93EE93129711870087F8018081C4
:1011B0008F5F8083DF91CF911F910F910895FC0184
:1011C0000396928381832FEF3FEF348323839683AB
:1011D00085839087878310820895CF93DF9300974C
:1011E00051F0EC010E94D905CE010E94B410DF91AC
:1011F000CF910C947007DF91CF9108950F931F93B7
:10120000CF93DF9300D0CDB7DEB789839A830E9456
:10121000D90589819A810E941F108C010E94700754
:101220000115110511F40E94A202C8010F900F9040
:10123000DF91CF911F910F910895FC017383628319
:10124000918780874617570778F0421B530B848598
:10125000958548175907C8F4BF016E5F7F4F80918D
:101260003F01909140010DC04217530718F46217D7
:10127000730758F4BF016E5F7F4F809141019091D9
:1012800042010E94A70880E0089581E00895EF924E
:10129000FF920F931F93CF93DF93E0914101F09161
:1012A00042018081882369F10580F681E02D00816B
:1012B0001181C681D7817E0182E0E80EF11CC70151
:1012C0000E94ED05E989FA89CE0109958E85813064
:1012D00021F72C853D85200F311F0217130760F47D
:1012E0003B832A83D987C887B701809141019091B8
:1012F00042010E94A708D1CFB801CE010E94CE0FB3
:10130000CCCF80913F019091400190934201809316
:101310004101F0934001E0933F01DF91CF911F9194
:101320000F91FF90EF900895EF92FF920F931F930C
:10133000CF93DF931F92CDB7DEB77C0100915C01A4
:1013400010915D018091A4019091A501029669839D
:101350000E94ED0569818FEFE816F80699F466237F
:1013600089F06091A4017091A5016E5F7F4F83E6C3
:1013700091E00F90DF91CF911F910F91FF90EF902F
:101380000C941006E00EF11EE091A401F091A5016D
:10139000F382E2826091A4017091A501E016F1064A
:1013A00078F480915F01909160016E5F7F4F0F90A4
:1013B000DF91CF911F910F91FF90EF900C94A708B0
:1013C00080916101909162016E5F7F4F0E94A7083A
:1013D00080913B0190913C01E816F90620F4F092CF
:1013E0003C01E0923B010F90DF91CF911F910F9153
:1013F000FF90EF900895CF93DF93CDB7DEB72C9792
:101400000FB6F894DEBF0FBECDBFE0914101F09161
:101410004201FF24F3948081882339F0F12C058068
:10142000F681E02D0081118102C000E010E00E94F1
:10143000D9050E94CF056C0180913D0190913E013C
:10144000C816D90620F40E94470981E001C080E057
:10145000D0923E01C0923D01811178C0F11034C09C
:10146000C016D106C8F10E947007E0914101F091C9
:1014700042010580F681E02DE680F780C7010296E3
:101480000E94ED05D7011E968C911E97813089F43C
:101490001C966D917C911D97600F711F9801A6019C
:1014A000C7010E941D09882321F0B801C7010E94CD
:1014B000CE0FD7015196ED91FC915297C701099536
:1014C00094E0C92ED12C52C0E0913F01F09140012F
:1014D000BB24B39480818111B12CE0905A01F0902B
:1014E0005B010FB6F8940F92F701858D8F3F09F4D9
:1014F000158ED7015E968C915E978F3F11F45E96A4
:101500001C920F900FBEF701828D811115C0609162
:10151000A4017091A501645F7F4FC70141960E94AD
:101520001006B11004C0C8018C199D0902C08FEFCC
:101530009FEF6B2D0E949409C7010E9471060E94C3
:1015400070078111BDCF0E94B306BACF0E94700709
:10155000B7CFEA80FB80F801648575856E0D7F1D2D
:101560009701C8010E941D0981118DC089E0782E64
:1015700000915A0110915B011A86198680E058018A
:10158000B1E1AB0EB11C0FB6F8940F92F801F28CDA
:10159000FF2009F49FC0448D4423C9F050E08681A8
:1015A0009781840F951F97838683228133818217C9
:1015B000930720F08081918197838683D8011696C6
:1015C0006D917C911797CE0101960E945111FA946A
:1015D000F801F28E80819181892BB1F48091A40170
:1015E0009091A501892B39F0E091A401F091A5011A
:1015F00082A18F5F82A38091A4019091A501D8015F
:1016000013969C938E931297F8018085882339F066
:10161000C80108960E94310681110E94B3060F90FE
:101620000FBE898087FCA4CF0C811D81D8011A963A
:101630008D919C911B97892B21F0C80102960E94E5
:10164000ED050E94CF05AC0180913D0190913E01D6
:101650004817590730F44B875C870E9447095C851F
:101660004B8550933E0140933D01882D880C990B8A
:10167000AA0BBB0B8A30910508F07ACFFC01EC5C19
:10168000FF4F0C941910D8015196ED91FC9152978F
:10169000C8010995F8018685813009F067CF8485F6
:1016A0009585B701680F791FC8010E94CE0F5ECFE4
:1016B0006A817B81D8011D967C936E931C97640F81
:1016C000751F9A01C8010E941D0950CFC8010E94D0
:1016D000ED084CCF29853A85232B19F40F900FBEC6
:1016E00094CE811109C080915E018E8380915C014E
:1016F00090915D0198878F830F900FBE0E94D9054E
:101700000FB6F8940F92D8015D968C915D978F3F3C
:1017100011F45D961C92F801868D8F3F09F4168EA8
:101720000F900FBEBE01675F7F4FCE0106960E94ED
:101730009A05811187C0C8010E94DF05882309F43A
:101740007BC0D8018D919C91892B09F05AC00FB6AE
:10175000F8940F92F801E280F380E114F10409F4A7
:101760004EC0D70156968C915697E091A401F09106
:10177000A5019689891708F042C01C962D913C91CD
:101780001D9737FD0CC0E091A401F091A501968949
:101790009601291B31091D963C932E931C97789E28
:1017A000C001112482589E4FF701228533852817E6
:1017B0003907F1F44701F2E08F0E911CC4010E9439
:1017C000ED05E091A401F091A5012689D701569677
:1017D0002C938091A201821710F42093A201729E93
:1017E000C0011124B40182589E4F0E94100607C008
:1017F000E091A401F091A5018689F701868B0F90F5
:101800000FBEE984FA846091A4017091A501645F20
:101810007F4FC5010E94A70861E0C7010E9494099B
:10182000C8010E9471060E947007882311F081E0B0
:10183000AACE0E94B306FBCFC8010E9471060E9487
:101840007007F5CFC8010E9471060E947007C80199
:101850000E94DF05882359F3D8CDE7EAF1E013822F
:10186000128288EE93E0A0E0B0E084839583A683A3
:10187000B7838AE091E09183808385EC90E095873F
:10188000848784EC90E09787868780EC90E0918B4A
:10189000808B81EC90E0938B828B82EC90E0958B37
:1018A000848B86EC90E0978B868B118E128E138E34
:1018B000148E0895789484B5826084BD84B5816067
:1018C00084BD85B5826085BD85B5816085BD80910B
:1018D0006E00816080936E00109281008091810083
:1018E000826080938100809181008160809381007B
:1018F000809180008160809380008091B10084603D
:101900008093B1008091B00081608093B00080919D
:101910007A00846080937A0080917A00826080935C
:101920007A0080917A00816080937A0080917A00B9
:10193000806880937A001092C1000E94650107E5DB
:1019400011E020E040EC50E06AE271E08FE291E0CB
:101950000E945D0E813009F0B0C00FB6F8940F926E
:1019600080915A0190915B01892B09F04BC08CE466
:1019700091E00E94DF0883E491E00E94DF088CE49C
:1019800091E0909342018093410183E491E0909330
:10199000400180933F0181E590E00E94FE08EC0148
:1019A000009761F14F96998388838AE08B8F85E059
:1019B0008C8F0FB6F8940F92288139819B8D4C8DB6
:1019C000949FC0011124B901680F791F7B836A833A
:1019D0001A8E3D832C83841B9109820F931F9F8352
:1019E0008E838FEF8D8F8E8FCE0108960E94DF0839
:1019F000CE0141960E94DF080F900FBED0935B018D
:101A0000C0935A010F900FBE80915A0190915B01D3
:101A1000892B09F452C005E511E023E045E550E0CB
:101A20006FE271E08BEF99E00E945D0E813009F06A
:101A300044C0F8942FEF3FEF30933C0120933B01DB
:101A40008093A30110925D0110925C01A89520EC97
:101A500088E190E00FB6F894A895809360000FBEDF
:101A600020936000A091A401B091A501CD91CDBFBC
:101A7000DD91DEBFFF91EF91DF91CF91BF91AF91EB
:101A80009F918F917F916F915F914F913F912F9196
:101A90001F910F91FF90EF90DF90CF90BF90AF908C
:101AA0009F908F907F906F905F904F903F902F907E
:101AB0001F900F900FBE0F9008950E94A202AF9248
:101AC000BF92CF92DF92EF92FF920F931F93CF932B
:101AD000DF9300D000D01F92CDB7DEB78C017B0121
:101AE0001D821C8290E0580188E0A80EB11C0FB640
:101AF000F8940F92F801228D838D281708F06DC09D
:101B0000D28C448D41113FC080819181892B09F095
:101B100052C0F801E280F380E114F10411F480E096
:101B20002EC0F70182A1815082A3268991A1291795
:101B3000B1F38111F4CF5701F2E0AF0EB11CC50132
:101B40000E94ED05F70191A1968B492F50E024E00A
:101B500030E0241B350B358724878091A20189173B
:101B600010F49093A20129E0249FC001259F900DBD
:101B70001124B50182589E4F0E94100681E0F801A1
:101B80001382128219C050E0B701F8018481958157
:101B90000E945111F801248D84819581820F911D3D
:101BA00095838483228133818217930720F080817B
:101BB00091819583848380E0D394F801D28E9189BA
:101BC000992321F0C80141960E94310681110E949B
:101BD000B3060F900FBE81E060C02C813D81232BA6
:101BE00019F40F900FBE58C0911109C080915E0189
:101BF000898380915C0190915D019B838A830F9022
:101C00000FBE0E94D9050FB6F8940F92F801858D8A
:101C10008F3F09F4158EF801868D8F3F09F4168EDB
:101C20000F900FBEBE016C5F7F4FCE0101960E94E8
:101C30009A0581112CC00FB6F8940F92F801928D7D
:101C4000838D0F900FBE98131CC0CC80DD80209137
:101C5000A4013091A501B901645F7F4FC5010E94C5
:101C6000A70861E0C6010E949409C8010E9471069C
:101C70000E947007882311F091E039CF0E94B306CB
:101C8000FBCFC8010E9471060E947007F5CFC80102
:101C90000E9471060E94700780E00F900F900F90D5
:101CA0000F900F90DF91CF911F910F91FF90EF90C8
:101CB000DF90CF90BF90AF9008957F928F929F92C8
:101CC000AF92BF92CF92DF92EF92FF920F931F934A
:101CD000CF93DF93982EC92E762E872EEA01D22E2F
:101CE000CA010E94FE085C01892B09F448C188E200
:101CF00090E00E94FE087C010097D9F0DC01589624
:101D0000BC92AE925797AE0165EA70E0C5010E94A1
:101D10005A112197D7015796ED91FC915897EC0FE6
:101D2000FD1FB701675E7F4FA72DB82DCD01089627
:101D300007C0C5010E94ED0822C1A817B90749F0E4
:101D40009D014D91EB014993BE01E90128812111CB
:101D5000F4CFD70190961C922D2D243008F023E06B
:101D6000E7012E8B29A31AA21B861A861D8A1C8ABC
:101D7000F986E88684E090E0821B91099D878C8734
:101D8000FB8AEA8A1BA21CA21DA21EA21FA291E12D
:101D90009083DF01119782E28C93119723E32C93B8
:101DA00011979C921197CC9211971C92119720E851
:101DB0002C9311971C92119722E02C93119723E0FA
:101DC0002C93119724E02C93119725E02C931197D5
:101DD00026E02C93119727E02C93119728E02C9361
:101DE000119729E02C93119720E12C9311979C9344
:101DF000119792E19C93119793E19C93119794E131
:101E00009C93119795E19C93119796E19C93119760
:101E100097E19C93119798E19C93119799E19C937A
:101E2000119790E29C93119791E29C9311978C9358
:101E3000119783E28C9311971C9211971C92119722
:101E400086E28C93119787E28C93119788E28C93AA
:101E5000119789E28C93119780E38C93119781E31A
:101E60008C93B697F983E8830115110519F0F801F1
:101E7000F182E0820FB6F8940F928091A6018F5FF5
:101E80008093A6018091A4019091A501892BD1F5A1
:101E9000F092A501E092A4018091A601813009F0A1
:101EA00043C08EE791E00E94DF0887E891E00E943E
:101EB000DF0880E991E00E94DF0889E991E00E9453
:101EC000DF0886E592E00E94DF088DE492E00E9440
:101ED000DF0885E791E00E94DF088CE691E00E9430
:101EE000DF0883E691E00E94DF0886E592E09093A8
:101EF0006201809361018DE492E090936001809390
:101F00005F0112C08091A30181110EC0E091A40174
:101F1000F091A5019689D70156968C91891720F0EA
:101F2000F092A501E092A40180915F028F5F8093FF
:101F30005F02E7018E899091A201981710F48093B7
:101F4000A201D9E08D9FC0011124B7016E5F7F4FC0
:101F500082589E4F0E9410060F900FBE8091A301E1
:101F6000882359F0E091A401F091A5019689F70129
:101F70008689981710F40E94B30681E001C08FEFA4
:101F8000DF91CF911F910F91FF90EF90DF90CF9055
:101F9000BF90AF909F908F907F900895CF93DF93E5
:101FA00000D000D01F92CDB7DEB79C0180915A01BE
:101FB00090915B01009761F019827B836A833D8376
:101FC0002C832091A301222329F02091590102C0E2
:101FD00080E005C0BE016F5F7F4F0E945F0D0F90D4
:101FE0000F900F900F900F90DF91CF910895A1E285
:101FF0001A2EAA1BBB1BFD010DC0AA1FBB1FEE1F83
:10200000FF1FA217B307E407F50720F0A21BB30BCD
:10201000E40BF50B661F771F881F991F1A9469F749
:1020200060957095809590959B01AC01BD01CF01A5
:102030000895EE0FFF1F0590F491E02D0994CF93C2
:10204000DF938230910510F482E090E0E09162022B
:10205000F091630220E030E0C0E0D0E0309711F171
:102060004081518148175907C0F04817590761F45A
:1020700082819381209719F09B838A832BC0909350
:1020800063028093620226C02115310519F04217C0
:10209000530718F49A01BE01DF01EF010280F381BA
:1020A000E02DDCCF2115310509F1281B390B243037
:1020B000310590F412968D919C91139761157105DD
:1020C00021F0FB019383828304C090936302809389
:1020D0006202FD01329644C0FD01E20FF31F8193BD
:1020E0009193225031092D933C933AC02091600284
:1020F00030916102232B41F42091020130910301C0
:10210000309361022093600220910001309101011F
:102110002115310541F42DB73EB74091040150918E
:102120000501241B350BE0916002F0916102E2177A
:10213000F307A0F42E1B3F0B2817390778F0AC01EA
:102140004E5F5F4F2417350748F04E0F5F1F5093C7
:102150006102409360028193919302C0E0E0F0E05D
:10216000CF01DF91CF9108950F931F93CF93DF930A
:10217000009709F48CC0FC013297138212820091FF
:102180006202109163020115110581F420813181F1
:10219000820F931F20916002309161022817390746
:1021A00079F5F0936102E093600271C0D80140E0DC
:1021B00050E0AE17BF0750F412962D913C91139743
:1021C000AD012115310509F1D901F3CF9D01DA01E6
:1021D0003383228360817181860F971F8217930753
:1021E00069F4EC0128813981260F371F2E5F3F4F9C
:1021F000318320838A819B8193838283452B29F4B9
:10220000F0936302E093620242C01396FC93EE9354
:102210001297ED01499159919E01240F351FE21744
:10222000F30771F480819181840F951F02961196B6
:102230009C938E938281938113969C938E93129795
:10224000E0E0F0E0D80112968D919C9113970097F1
:1022500019F0F8018C01F6CF8D919C9198012E5FB9
:102260003F4F820F931F2091600230916102281727
:10227000390769F4309729F41092630210926202D0
:1022800002C0138212821093610200936002DF91F8
:10229000CF911F910F91089581E090E0F8940C94F4
:1022A0006111FB01DC0102C001900D9241505040D0
:1022B000D8F70895DC0101C06D9341505040E0F71C
:0622C0000895F894FFCF21
:1022C60000006402800000000000D701CA02A001DD
:1022D6007E0192011E020D0A00426C696E6B00417E
:1022E6006E616C6F67526561640049444C450054E9
:0822F6006D72205376630000B5
:107E0000112484B714BE81FFF0D085E080938100F7
:107E100082E08093C00088E18093C10086E0809377
:107E2000C20080E18093C4008EE0C9D0259A86E02C
:107E300020E33CEF91E0309385002093840096BBD3
:107E4000B09BFECF1D9AA8958150A9F7CC24DD24C4
:107E500088248394B5E0AB2EA1E19A2EF3E0BF2EE7
:107E6000A2D0813461F49FD0082FAFD0023811F036
:107E7000013811F484E001C083E08DD089C08234E0
:107E800011F484E103C0853419F485E0A6D080C0E4
:107E9000853579F488D0E82EFF2485D0082F10E0AE
:107EA000102F00270E291F29000F111F8ED06801E7
:107EB0006FC0863521F484E090D080E0DECF843638
:107EC00009F040C070D06FD0082F6DD080E0C81688
:107ED00080E7D80618F4F601B7BEE895C0E0D1E017
:107EE00062D089930C17E1F7F0E0CF16F0E7DF06D8
:107EF00018F0F601B7BEE89568D007B600FCFDCFD4
:107F0000A601A0E0B1E02C9130E011968C91119780
:107F100090E0982F8827822B932B1296FA010C0160
:107F200087BEE89511244E5F5F4FF1E0A038BF0790
:107F300051F7F601A7BEE89507B600FCFDCF97BE46
:107F4000E89526C08437B1F42ED02DD0F82E2BD052
:107F50003CD0F601EF2C8F010F5F1F4F84911BD097
:107F6000EA94F801C1F70894C11CD11CFA94CF0C13
:107F7000D11C0EC0853739F428D08EE10CD085E9AC
:107F80000AD08FE07ACF813511F488E018D01DD067
:107F900080E101D065CF982F8091C00085FFFCCF94
:107FA0009093C60008958091C00087FFFCCF809118
:107FB000C00084FD01C0A8958091C6000895E0E648
:107FC000F0E098E1908380830895EDDF803219F02E
:107FD00088E0F5DFFFCF84E1DECF1F93182FE3DFCA
:107FE0001150E9F7F2DF1F91089580E0E8DFEE27F6
:047FF000FF270994CA
:027FFE00040479
:0400000300007E007B
:00000001FF