:100000000C9435000C945D000C945D000C945D0024
:100010000C945D000C945D000C945D000C945D00EC
:100020000C945D000C945D000C945D000C945D00DC
:100030000C945D000C945D000C945D000C945D00CC
:100040000C949E020C945D000C940E030C94E80238
:100050000C945D000C945D000C945D000C945D00AC
:100060000C945D000C945D00400311241FBECFEF83
:10007000D8E0DEBFCDBF11E0A0E0B1E0EAE4FDE0F2
:1000800002C005900D92A631B107D9F721E0A6E193
:10009000B1E001C01D92AC3DB207E1F710E0C5E34D
:1000A000D0E004C02197FE010E949806C433D10716
:1000B000C9F70E9483030C94A3060C9400004F928E
:1000C0005F926F927F928F929F92AF92BF92CF92E8
:1000D000DF92EF92FF920F931F93CF93DF9300D0A5
:1000E00000D0CDB7DEB76B017C0104EC11E0D80184
:1000F00014968D919D910D90BC91A02D89839A832A
:10010000AB83BC83F8012081318142815381BC01E2
:10011000CD010E9467049B01AC0169817A818B81CA
:100120009C810E94D3042B013C01D80154966D930D
:100130007D938D939C93579750968D909D90AD9005
:10014000BC905397A5019401C701B6010E946604B3
:100150009B01AC01C301B2010E9409069B01AC01E5
:10016000C501B4010E9467046B017C01F80164873A
:10017000758786879787A301920160E070E080E829
:100180009FE30E94660429813A814B815C810E9431
:1001900009062B013C01A7019601C501B4010E948B
:1001A00066049F77D80118962D913D914D915C91F1
:1001B0001B970E9409069B01AC01C301B2010E947A
:1001C0006704F8016483758386839783C08AD18A24
:1001D000E28AF38AC701B6010F900F900F900F903B
:1001E000DF91CF911F910F91FF90EF90DF90CF9013
:1001F000BF90AF909F908F907F906F905F904F9047
:100200000895CF92DF92EF92FF920F931F93CF93B7
:10021000DF936C017A018B01C0E0D0E0CE15DF05E1
:1002200089F0D8016D918D01D601ED91FC9101907D
:10023000F081E02DC6010995892B11F47E0102C0E1
:100240002196ECCFC701DF91CF911F910F91FF90C5
:10025000EF90DF90CF900895FC01918D828D9817DB
:1002600061F0828DDF01A80FB11D5D968C91928D9A
:100270009F5F9F73928F90E008958FEF9FEF089597
:10028000FC01918D828D981731F0828DE80FF11D60
:10029000858D90E008958FEF9FEF0895FC01918D7B
:1002A000228D892F90E0805C9F4F821B91098F7374
:1002B0009927089587E291E00E944E0121E0892B61
:1002C00009F420E0822F0895FC01848DDF01A80F3E
:1002D000B11DA35ABF4F2C91848D90E001968F736E
:1002E0009927848FA689B7892C93A089B1898C918D
:1002F00080648C93938D848D981306C00288F38953
:10030000E02D80818F7D80830895EF92FF920F937F
:100310001F93CF93DF93EC0181E0888F9B8D8C8DB1
:10032000981305C0E889F989808185FD24C0F62EDF
:100330000B8D10E00F5F1F4F0F731127E02E8C8D78
:10034000E8120CC00FB607FCFACFE889F989808162
:1003500085FFF5CFCE010E946401F1CF8B8DFE01A8
:10036000E80FF11DE35AFF4FF0820B8FEA89FB89FA
:100370008081806207C0EE89FF896083E889F989FE
:1003800080818064808381E090E0DF91CF911F9134
:100390000F91FF90EF900895CF93DF93EC01888D3C
:1003A0008823C9F0EA89FB89808185FD05C0A88979
:1003B000B9898C9186FD0FC00FB607FCF5CF8081FF
:1003C00085FFF2CFA889B9898C9185FFEDCFCE0149
:1003D0000E946401E7CFDF91CF91089580E090E023
:1003E000892B29F00E945A0181110C940000089574
:1003F0008E3008F08E508770806480937C008091EE
:100400007A00806480937A0080917A0086FDFCCF28
:10041000809178002091790090E0922B08950097C8
:1004200069F0FC0101900020E9F73197AF01481B0A
:10043000590BBC0187E291E00C94010180E090E04F
:1004400008958F929F92AF92BF92CF92DF92EF92D8
:10045000FF920F931F93CF93DF93CDB7DEB7A19792
:100460000FB6F894DEBF0FBECDBF6C01990FEE083A
:10047000FF08F7FE31C0E0912701F09128010190BB
:10048000F081E02D6DE287E291E009958C01222751
:100490003327A9012C193D094E095F0919A2CE0184
:1004A00081967C019AE0892E912CA12CB12CCA0155
:1004B000B901A50194010E947606605DF70162937F
:1004C0007F01211531054105510589F7CF010E94B2
:1004D0000F02800F911F1DC0A701960119A28E0166
:1004E0000F5D1F4F8AE0C82ED12CE12CF12CCA01E0
:1004F000B901A70196010E947606605DF80162933A
:100500008F01211531054105510589F7CF010E9461
:100510000F02A1960FB6F894DEBF0FBECDBFDF91DC
:10052000CF911F910F91FF90EF90DF90CF90BF90F0
:10053000AF909F908F9008950E949E061F920F92F9
:100540000FB60F9211242F933F938F939F93AF93E6
:10055000BF938091230190912401A0912501B09136
:1005600026013091220123E0230F2D3720F401963C
:10057000A11DB11D05C026E8230F0296A11DB11DC6
:10058000209322018093230190932401A0932501BD
:10059000B093260180911E0190911F01A09120012E
:1005A000B09121010196A11DB11D80931E01909370
:1005B0001F01A0932001B0932101BF91AF919F91A2
:1005C0008F913F912F910F900FBE0F901F90189514
:1005D0001F920F920FB60F9211242F933F934F93B8
:1005E0005F936F937F938F939F93AF93BF93EF939B
:1005F000FF9387E291E00E946401FF91EF91BF9128
:10060000AF919F918F917F916F915F914F913F91AA
:100610002F910F900FBE0F901F9018951F920F9261
:100620000FB60F9211242F938F939F93EF93FF9305
:10063000E0913701F09138018081E0913D01F09126
:100640003E0182FD12C09081809140018F5F8F73C7
:1006500020914101821751F0E0914001F0E0E95D05
:10066000FE4F958F8093400101C08081FF91EF91F3
:100670009F918F912F910F900FBE0F901F90189503
:10068000E7E2F1E01382128288EE93E0A0E0B0E0AE
:1006900084839583A683B78384E091E091838083EC
:1006A00085EC90E09587848784EC90E09787868737
:1006B00080EC90E0918B808B81EC90E0938B828B2F
:1006C00082EC90E0958B848B86EC90E0978B868B08
:1006D000118E128E138E148EE4ECF1E080E090E027
:1006E000A0E8BFE380839183A283B383848395834F
:1006F000A683B7838CEB94E7A3E1BCE38087918763
:10070000A287B3870895789484B5826084BD84B548
:10071000816084BD85B5826085BD85B5816085BDFC
:1007200080916E00816080936E00109281008091B4
:10073000810082608093810080918100816080933C
:100740008100809180008160809380008091B10061
:1007500084608093B1008091B00081608093B0008C
:1007600080917A00846080937A0080917A00826020
:1007700080937A0080917A00816080937A008091E2
:100780007A00806880937A001092C100E09137016E
:10079000F091380182E08083E0913301F0913401DF
:1007A0001082E0913501F09136018FEC8083109238
:1007B0003F01E0913B01F0913C0186E08083E091B4
:1007C0003901F0913A01808180618083E0913901A3
:1007D000F0913A01808188608083E0913901F09145
:1007E0003A01808180688083E0913901F0913A017B
:1007F00080818F7D80838FE00E94F8016C0180E111
:100800000E94F8017C0181E10E94F8018C0182E1E3
:100810000E94F801EC01B601DD0C880B990B0E94D7
:100820007D050E945F000E94450570931D01609345
:100830001C01CB010E94210280E191E00E940F0285
:10084000B701FF0C880B990B0E947D050E945F0089
:100850000E94450570931B0160931A01CB010E9411
:10086000210280E191E00E940F02B801110F880B74
:10087000990B0E947D050E945F000E9445057093C0
:10088000190160931801CB010E94210280E191E0DF
:100890000E940F02BE01DD0F880B990B0E947D059F
:1008A0000E945F000E944505709317016093160136
:1008B000CB010E94210280E191E00E940F0282E1BF
:1008C00091E00E940F020E94EE0195CF5058BB2785
:1008D000AA270E947E040C94CF050E94C10538F01F
:1008E0000E94C80520F039F49F3F19F426F40C94B7
:1008F000BE050EF4E095E7FB0C94B805E92F0E94C5
:10090000E00558F3BA17620773078407950720F0CC
:1009100079F4A6F50C9402060EF4E0950B2EBA2F8E
:10092000A02D0B01B90190010C01CA01A0011124F5
:10093000FF27591B99F0593F50F4503E68F11A16A1
:10094000F040A22F232F342F4427585FF3CF469532
:1009500037952795A795F0405395C9F77EF41F1654
:10096000BA0B620B730B840BBAF09150A1F0FF0F1E
:10097000BB1F661F771F881FC2F70EC0BA0F621F0A
:10098000731F841F48F4879577956795B795F795FA
:100990009E3F08F0B0CF9395880F08F09927EE0F8F
:1009A0009795879508950E94E7040C94CF050E94BF
:1009B000C80558F00E94C10540F029F45F3F29F0B6
:1009C0000C94B80551110C9403060C94BE050E94BA
:1009D000E00568F39923B1F3552391F3951B550B6B
:1009E000BB27AA2762177307840738F09F5F5F4F02
:1009F000220F331F441FAA1FA9F335D00E2E3AF041
:100A0000E0E832D091505040E695001CCAF72BD058
:100A1000FE2F29D0660F771F881FBB1F26173707A9
:100A20004807AB07B0E809F0BB0B802DBF01FF27DB
:100A300093585F4F3AF09E3F510578F00C94B805FB
:100A40000C9403065F3FE4F3983ED4F386957795C4
:100A50006795B795F7959F5FC9F7880F911D969594
:100A6000879597F90895E1E0660F771F881FBB1FF0
:100A7000621773078407BA0720F0621B730B840B9D
:100A8000BA0BEE1F88F7E09508950E944C05689414
:100A9000B1110C94030608950E94E80588F09F5751
:100AA00098F0B92F9927B751B0F0E1F0660F771F92
:100AB000881F991F1AF0BA95C9F714C0B13091F088
:100AC0000E940206B1E008950C940206672F782F69
:100AD0008827B85F39F0B93FCCF38695779567954D
:100AE000B395D9F73EF490958095709561957F4FB9
:100AF0008F4F9F4F0895E89409C097FB3EF490955F
:100B00008095709561957F4F8F4F9F4F9923A9F0E6
:100B1000F92F96E9BB279395F69587957795679575
:100B2000B795F111F8CFFAF4BB0F11F460FF1BC0B9
:100B30006F5F7F4F8F4F9F4F16C0882311F096E94C
:100B400011C0772321F09EE8872F762F05C06623FA
:100B500071F096E8862F70E060E02AF09A95660FB3
:100B6000771F881FDAF7880F9695879597F908956C
:100B700097F99F6780E870E060E008959FEF80EC50
:100B8000089500240A9416161706180609060895F3
:100B900000240A9412161306140605060895092E59
:100BA0000394000C11F4882352F0BB0F40F4BF2BC8
:100BB00011F460FF04C06F5F7F4F8F4F9F4F089508
:100BC00057FD9058440F551F59F05F3F71F04795FE
:100BD000880F97FB991F61F09F3F79F087950895E3
:100BE000121613061406551FF2CF4695F1DF08C002
:100BF000161617061806991FF1CF8695710561051F
:100C000008940895E894BB2766277727CB0197F9C6
:100C100008950E941C060C94CF050E94C10538F06F
:100C20000E94C80520F0952311F00C94B8050C948F
:100C3000BE0511240C9403060E94E00570F3959FF5
:100C4000C1F3950F50E0551F629FF001729FBB27C3
:100C5000F00DB11D639FAA27F00DB11DAA1F649F5F
:100C60006627B00DA11D661F829F2227B00DA11D12
:100C7000621F739FB00DA11D621F839FA00D611D98
:100C8000221F749F3327A00D611D231F849F600DB9
:100C9000211D822F762F6A2F11249F5750409AF0E2
:100CA000F1F088234AF0EE0FFF1FBB1F661F771F6E
:100CB000881F91505040A9F79E3F510580F00C9439
:100CC000B8050C9403065F3FE4F3983ED4F3869591
:100CD00077956795B795F795E7959F5FC1F7FE2BD9
:100CE000880F911D9695879597F90895A1E21A2E80
:100CF000AA1BBB1BFD010DC0AA1FBB1FEE1FFF1FC0
:100D0000A217B307E407F50720F0A21BB30BE40B0F
:100D1000F50B661F771F881F991F1A9469F7609556
:100D20007095809590959B01AC01BD01CF01089510
:100D3000EE0FFF1F0590F491E02D099481E090E003
:0A0D4000F8940C94A306F894FFCF7A
:100D4A0000000000850101014E012C014001CC0187
:060D5A002C000D0A000050
:107E0000112484B714BE81FFF0D085E080938100F7
:107E100082E08093C00088E18093C10086E0809377
:107E2000C20080E18093C4008EE0C9D0259A86E02C
:107E300020E33CEF91E0309385002093840096BBD3
:107E4000B09BFECF1D9AA8958150A9F7CC24DD24C4
:107E500088248394B5E0AB2EA1E19A2EF3E0BF2EE7
:107E6000A2D0813461F49FD0082FAFD0023811F036
:107E7000013811F484E001C083E08DD089C08234E0
:107E800011F484E103C0853419F485E0A6D080C0E4
:107E9000853579F488D0E82EFF2485D0082F10E0AE
:107EA000102F00270E291F29000F111F8ED06801E7
:107EB0006FC0863521F484E090D080E0DECF843638
:107EC00009F040C070D06FD0082F6DD080E0C81688
:107ED00080E7D80618F4F601B7BEE895C0E0D1E017
:107EE00062D089930C17E1F7F0E0CF16F0E7DF06D8
:107EF00018F0F601B7BEE89568D007B600FCFDCFD4
:107F0000A601A0E0B1E02C9130E011968C91119780
:107F100090E0982F8827822B932B1296FA010C0160
:107F200087BEE89511244E5F5F4FF1E0A038BF0790
:107F300051F7F601A7BEE89507B600FCFDCF97BE46
:107F4000E89526C08437B1F42ED02DD0F82E2BD052
:107F50003CD0F601EF2C8F010F5F1F4F84911BD097
:107F6000EA94F801C1F70894C11CD11CFA94CF0C13
:107F7000D11C0EC0853739F428D08EE10CD085E9AC
:107F80000AD08FE07ACF813511F488E018D01DD067
:107F900080E101D065CF982F8091C00085FFFCCF94
:107FA0009093C60008958091C00087FFFCCF809118
:107FB000C00084FD01C0A8958091C6000895E0E648
:107FC000F0E098E1908380830895EDDF803219F02E
:107FD00088E0F5DFFFCF84E1DECF1F93182FE3DFCA
:107FE0001150E9F7F2DF1F91089580E0E8DFEE27F6
:047FF000FF270994CA
:027FFE00040479
:0400000300007E007B
:00000001FF