:100000000C945D000C9485000C9485000C94850084
:100010000C9485000C9485000C9485000C9485004C
:100020000C9485000C9485000C9485000C9485003C
:100030000C9485000C9485000C9485000C9485002C
:100040000C9418030C9485000C94E6020C94C002E6
:100050000C9485000C9485000C9485000C9485000C
:100060000C9485000C94850000000008000201003B
:100070000003040700000000000000000000000072
:10008000250028002B0000000000240027002A0083
:10009000040404040404040402020202020203032E
:1000A0000303030301020408102040800102040836
:1000B0001020010204081020A40411241FBECFEF59
:1000C000D8E0DEBFCDBF11E0A0E0B1E0E6E1FCE0AA
:1000D00002C005900D92A631B107D9F721E0A6E143
:1000E000B1E001C01D92A53DB207E1F710E0CDE5FA
:1000F000D0E004C02197FE010E94D104CC35D10785
:10010000C9F70E9462030C9409060C94000090E069
:10011000FC01EC55FF4F2491FC01E057FF4F849107
:10012000882399F090E0880F991FFC01EA57FF4F50
:10013000A591B491FC01E458FF4F859194918FB73C
:10014000F894EC91E22BEC938FBF0895CF92DF925D
:10015000EF92FF920F931F93CF93DF936C017A017D
:100160008B01C0E0D0E0CE15DF0589F0D8016D919C
:100170008D01D601ED91FC910190F081E02DC60139
:100180000995892B11F47E0102C02196ECCFC7019D
:10019000DF91CF911F910F91FF90EF90DF90CF9063
:1001A0000895FC01918D828D981761F0828DDF0199
:1001B000A80FB11D5D968C91928D9F5F9F73928F5A
:1001C00090E008958FEF9FEF0895FC01918D828D4F
:1001D000981731F0828DE80FF11D858D90E008951C
:1001E0008FEF9FEF0895FC01918D228D892F90E074
:1001F000805C9F4F821B91098F739927089588E235
:1002000091E00E94F30021E0892B09F420E0822F85
:100210000895FC01848DDF01A80FB11DA35ABF4FC3
:100220002C91848D90E001968F739927848FA689F5
:10023000B7892C93A089B1898C9180648C93938D1C
:10024000848D981306C00288F389E02D80818F7D0C
:1002500080830895EF92FF920F931F93CF93DF93C4
:10026000EC0181E0888F9B8D8C8D981305C0E88907
:10027000F989808185FD24C0F62E0B8D10E00F5F7B
:100280001F4F0F731127E02E8C8DE8120CC00FB694
:1002900007FCFACFE889F989808185FFF5CFCE0187
:1002A0000E940901F1CF8B8DFE01E80FF11DE35A89
:1002B000FF4FF0820B8FEA89FB898081806207C043
:1002C000EE89FF896083E889F98980818064808371
:1002D00081E090E0DF91CF911F910F91FF90EF901F
:1002E0000895CF93DF93EC01888D8823C9F0EA89C4
:1002F000FB89808185FD05C0A889B9898C9186FD1F
:100300000FC00FB607FCF5CF808185FFF2CFA8891B
:10031000B9898C9185FFEDCFCE010E940901E7CF0D
:10032000DF91CF91089580E090E0892B29F00E9421
:10033000FF0081110C940000089590E0FC01E85941
:10034000FF4F3491FC01EC55FF4F2491FC01E05725
:10035000FF4FE491EE2309F43BC0332339F13330EE
:1003600091F038F43130A9F0323001F584B58F7D49
:1003700012C0373091F03830A1F03430B9F48091A8
:1003800080008F7D03C0809180008F7780938000F4
:100390000DC084B58F7784BD09C08091B0008F7780
:1003A00003C08091B0008F7D8093B000F0E0EE0F2D
:1003B000FF1FE458FF4FA591B4918FB7F894EC91CB
:1003C000611103C020952E2301C02E2B2C938FBFCB
:1003D0000895CF93C091200191E0C9276C2F0E940E
:1003E0009D01C0932001CF910895CF93C091210129
:1003F00091E0C9276C2F0E949D01C0932101CF91EC
:100400000895CF93C091220191E0C9276C2F0E94DB
:100410009D01C0932201CF9108950E94040680910E
:10042000180181110BC088E090E00E94D7049093DE
:1004300017018093160181E08093180180911601C5
:10044000909117010895CF92DF92EF92FF92CF9390
:10045000DF93EC01C880D980EA80FB800E940F0204
:10046000FC0144815581668177814C0D5D1D6E1DB7
:100470007F1D80819181A281B381481B590B6A0B3A
:100480007B0B488359836A837B838C819D81AE81FA
:10049000BF8184179507A607B707A8F4481B590B17
:1004A0006A0B7B0B488359836A837B83EA85FB85D0
:1004B000309749F088859985DF91CF91FF90EF9033
:1004C000DF90CF900994DF91CF91FF90EF90DF9074
:1004D000CF900895CF93DF93EC010E948700FE0137
:1004E000FF27E859FF4FE491E33019F150F4E13070
:1004F000D1F0E230E1F584B5806284BD89E188BD48
:100500003CC0E73011F1E83049F1E43081F58091E9
:10051000800080628093800089E190E090938B005E
:1005200080938A002AC084B5806884BD89E187BD34
:1005300024C08091800080688093800089E190E0F1
:10054000909389008093880018C08091B0008068E3
:100550008093B00089E18093B3000FC08091B00018
:1005600080628093B00089E18093B40006C060E0AF
:100570008C2FDF91CF910C949D01DF91CF91089545
:100580001F920F920FB60F9211242F933F934F9308
:100590005F936F937F938F939F93AF93BF93EF93EB
:1005A000FF9388E291E00E940901FF91EF91BF91D2
:1005B000AF919F918F917F916F915F914F913F91FB
:1005C0002F910F900FBE0F901F9018951F920F92B2
:1005D0000FB60F9211242F938F939F93EF93FF9356
:1005E000E0913801F09139018081E0913E01F09174
:1005F0003F0182FD12C09081809141018F5F8F7316
:1006000020914201821751F0E0914101F0E0E85D54
:10061000FE4F958F8093410101C08081FF91EF9142
:100620009F918F912F910F900FBE0F901F90189553
:100630001F920F920FB60F9211242F933F938F9317
:100640009F93AF93BF938091C5019091C601A091F4
:10065000C701B091C8013091270123E0230F2D3746
:1006600020F40196A11DB11D05C026E8230F0296B6
:10067000A11DB11D209327018093C5019093C60150
:10068000A093C701B093C8018091230190912401E8
:10069000A0912501B09126010196A11DB11D809365
:1006A000230190932401A0932501B0932601BF91CB
:1006B000AF919F918F913F912F910F900FBE0F900F
:1006C0001F901895789484B5826084BD84B581604C
:1006D00084BD85B5826085BD85B5816085BD80910D
:1006E0006E00816080936E00109281008091810085
:1006F000826080938100809181008160809381007D
:10070000809180008160809380008091B10084603E
:100710008093B1008091B00081608093B00080919F
:100720007A00846080937A0080917A00826080935E
:100730007A0080917A00816080937A0080917A00BB
:10074000806880937A001092C100E0913801F091A6
:10075000390182E08083E0913401F091350110820B
:10076000E0913601F09137018FEC808310924001C7
:10077000E0913C01F0913D0186E08083E0913A01F7
:10078000F0913B01808180618083E0913A01F0919A
:100790003B01808188608083E0913A01F0913B01C8
:1007A000808180688083E0913A01F0913B018081F3
:1007B0008F7D80838DE00E9487008CE00E948700FF
:1007C0008BE00E9487008AE00E9487000E940F024F
:1007D0002FB7F8944091C5015091C6016091C701AF
:1007E0007091C8012FBFFC014083518362837383E2
:1007F0008CE090E00E94D704FC018DE090E09187AE
:10080000808781E090E0A0E0B0E084839583A683B8
:10081000B78310821182128213828AE692E0938754
:100820008287F093D001E093CF018CE090E00E94AA
:10083000D704FC018CE090E09187808784EF91E001
:10084000A0E0B0E084839583A683B78310821182F1
:100850001282138289EE91E093878287F093CE0112
:10086000E093CD018CE090E00E94D704FC018BE086
:1008700090E0918780878AEF90E0A0E0B0E08483E9
:100880009583A683B783108211821282138285EF2B
:1008900091E093878287F093CC01E093CB018CE0C9
:1008A00090E00E94D704FC018AE090E09187808765
:1008B0008DE790E0A0E0B0E084839583A683B783C2
:1008C000108211821282138281E092E093878287E4
:1008D000F093CA01E093C9010E940F022FB7F89468
:1008E0004091C5015091C6016091C7017091C80146
:1008F0002FBFFC0144835583668377838091CF01AA
:100900009091D0010E9423028091CD019091CE015F
:100910000E9423028091CB019091CC010E9423027E
:100920008091C9019091CA010E9423020E940F0286
:10093000FC014481558166817781408351836283C4
:1009400073830E949301C8CFE8E2F1E01382128220
:1009500088EE93E0A0E0B0E084839583A683B7831C
:100960008AE091E09183808385EC90E0958784878D
:1009700084EC90E09787868780EC90E0918B808B69
:1009800081EC90E0938B828B82EC90E0958B848B52
:1009900086EC90E0978B868B118E128E138E148EC0
:1009A0000895EE0FFF1F0590F491E02D0994CF9369
:1009B000DF938230910510F482E090E0E091D30162
:1009C000F091D40120E030E0C0E0D0E0309711F1A8
:1009D0004081518148175907C0F04817590761F401
:1009E00082819381209719F09B838A832BC09093F7
:1009F000D4018093D30126C02115310519F0421787
:100A0000530718F49A01BE01DF01EF010280F38160
:100A1000E02DDCCF2115310509F1281B390B2430DD
:100A2000310590F412968D919C9113976115710583
:100A300021F0FB019383828304C09093D4018093BF
:100A4000D301FD01329644C0FD01E20FF31F8193F3
:100A50009193225031092D933C933AC02091D101BA
:100A60003091D201232B41F42091020130910301F6
:100A70003093D2012093D1012091000130910101E6
:100A80002115310541F42DB73EB740910401509135
:100A90000501241B350BE091D101F091D201E21741
:100AA000F307A0F42E1B3F0B2817390778F0AC0191
:100AB0004E5F5F4F2417350748F04E0F5F1F50936E
:100AC000D2014093D1018193919302C0E0E0F0E024
:100AD000CF01DF91CF9108950F931F93CF93DF93B1
:100AE000009709F48CC0FC013297138212820091A6
:100AF000D3011091D4010115110581F420813181B8
:100B0000820F931F2091D1013091D201281739070C
:100B100079F5F093D201E093D10171C0D80140E0A2
:100B200050E0AE17BF0750F412962D913C911397E9
:100B3000AD012115310509F1D901F3CF9D01DA018C
:100B40003383228360817181860F971F82179307F9
:100B500069F4EC0128813981260F371F2E5F3F4F42
:100B6000318320838A819B8193838283452B29F45F
:100B7000F093D401E093D30142C01396FC93EE931B
:100B80001297ED01499159919E01240F351FE217EB
:100B9000F30771F480819181840F951F029611965D
:100BA0009C938E938281938113969C938E9312973C
:100BB000E0E0F0E0D80112968D919C911397009798
:100BC00019F0F8018C01F6CF8D919C9198012E5F60
:100BD0003F4F820F931F2091D1013091D2012817EE
:100BE000390769F4309729F41092D4011092D30197
:100BF00002C0138212821093D2010093D101DF91BF
:100C0000CF911F910F91089581E090E0F8940C949A
:060C10000906F894FFCF75
:100C16000000D5018000000000002A01A600F300B4
:060C2600D100E5007101A0
:00000001FF
