:100000000C9467000C9436040C940F040C948F002D
:100010000C948F000C948F000C947A060C948F0033
:100020000C948F000C948F000C948F000C948F0014
:100030000C948F000C948F000C948F000C948F0004
:100040000C94C5030C948F000C948F000C948F00BB
:100050000C948F000C948F000C948F000C948F00E4
:100060000C948F000C948F00B10AB10AB10AC00A37
:10007000600B6E0BB10AB10AC00A600B00000008E9
:10008000000201000003040700000000000000005F
:1000900000000000250028002B00000000002400C4
:1000A00027002A00040404040404040402020202D7
:1000B000020203030303030301020408102040802B
:1000C000010204081020010204081020540C11241D
:1000D0001FBECFEFD8E0DEBFCDBF11E0A0E0B1E0A2
:1000E000E2E9F3E202C005900D92A032B107D9F720
:1000F00021E0A0E2B1E001C01D92AF3CB207E1F700
:1001000010E0C7E6D0E004C02197FE010E947F10F6
:10011000C636D107C9F70E94580F0C94C7110C942A
:100120000000E0913C01F0913D018081811103C00C
:100130008FEF9FEF0CC0E0913C01F0913D010580F5
:10014000F681E02D0680F781E02D828193819093E6
:100150003601809335010895809126019091270101
:10016000019690932701809326010895CF93DF9302
:10017000EC0160E08E810E94DA0261E08E810E94D3
:10018000DA0260E08E810E94DA028BE891E001974A
:10019000F1F7DF91CF910895CF92DF92EF92FF9226
:1001A0000F931F93CF93DF937C016C0187E0C80E00
:1001B000D11CC0E0D0E0062F10E0B8010C2E02C028
:1001C000759567950A94E2F76170F60181916F0168
:1001D0000E94DA022196C430D10579F7C701DF9178
:1001E000CF911F910F91FF90EF90DF90CF900C94E3
:1001F000B600CF92DF92EF92FF920F931F93CF93AF
:10020000DF93EC01F62E642F8C810E94DA028D813F
:100210008F3F19F060E00E94DA028F850F2D10E009
:1002200084FF25C06E0187E0C80ED11CE12CF12CA3
:10023000B8010E2C02C0759567950A94E2F76170BB
:10024000F60181916F010E94DA02FFEFEF1AFF0AB7
:1002500088E0E816F10461F7CE01DF91CF911F919C
:100260000F91FF90EF90DF90CF900C94B600B80103
:1002700084E0759567958A95E1F7CE010E94CC00E0
:100280006F2DCE01DF91CF911F910F91FF90EF90D5
:10029000DF90CF900C94CC0041E00E94F90081E007
:1002A00090E0089540E00C94F9002FB7F894809105
:1002B0002D0190912E01A0912F01B09130012FBFFF
:1002C00040912201509123016091240170912501F8
:1002D000841B950BA60BB70B883E9340A105B10577
:1002E00008F443C0F89420912601309127014CE393
:1002F000429FC001439F900D112490932101809350
:10030000200180912001909121010E94A402E0919E
:100310009701E23010F4E15001C0E1E0F0E0EC5769
:10032000FE4F6489606884E891E00E9452018091E8
:100330002601909127010E94A40210922701109299
:1003400026012FB7F89480912D0190912E01A09154
:100350002F01B09130012FBF809322019093230190
:10036000A0932401B09325017894089500E010E053
:1003700080912A01882349F10E947406C0914701A7
:100380000E940008CC23A1F30FB6F8940F92E091DD
:100390004C01F0914D01C681D781CE0102960E9499
:1003A0007D068091590181508093590180912A01E5
:1003B000815080932A010F900FBE8F89988D0E94E3
:1003C000F209CE010E94F209D3CF80915F01823001
:1003D00010F00E9443070E9455010115110509F410
:1003E000C7CF0E940000C4CF8CEA90E09093030135
:1003F00080930201E9E6F0E08081837F886080835A
:10040000E99A62E084E891E00C94260390E0FC0114
:10041000E854FF4F2491FC01EC55FF4F8491882351
:1004200099F090E0880F991FFC01E656FF4FA591C7
:10043000B491FC01E057FF4F859194918FB7F894E8
:10044000EC91E22BEC938FBF0895CF92DF92EF9265
:10045000FF920F931F93CF93DF936C017A018B016F
:10046000C0E0D0E0CE15DF0589F0D8016D918D0197
:10047000D601ED91FC910190F081E02DC601099526
:10048000892B11F47E0102C02196ECCFC701DF91C8
:10049000CF911F910F91FF90EF90DF90CF90089533
:1004A00008958F929F92AF92BF920F931F93CF9315
:1004B000DF93CDB7DEB7A1970FB6F894DEBF0FBEBE
:1004C000CDBF19A2423008F44AE08E010F5D1F4FE4
:1004D000842E912CA12CB12CA50194010E945D10B9
:1004E000E62FB901CA0101501109EA3014F4E05DA8
:1004F00001C0E95CD801EC93232B242B252B61F759
:100500000115110571F0F80101900020E9F731970C
:10051000AF01401B510BB80184E891E00E94250215
:1005200002C080E090E0A1960FB6F894DEBF0FBE47
:10053000CDBFDF91CF911F910F91BF90AF909F9052
:100540008F9008950E94B211CF92DF92EF92FF92A6
:10055000CF93DF936C01990FEE08FF08F7FE1FC0E1
:10056000E0918401F09185010190F081E02D6DE230
:1005700084E891E00995EC0166277727CB016C1997
:100580007D098E099F094AE00E9451028C0F9D1F30
:10059000DF91CF91FF90EF90DF90CF9008954AE0E8
:1005A000C701B601DF91CF91FF90EF90DF90CF9020
:1005B0000C94510290E0FC01E458FF4F3491FC018F
:1005C000E854FF4F2491FC01EC55FF4FE491EE23DA
:1005D00009F43BC0332339F1333091F038F4313032
:1005E000A9F0323001F584B58F7D12C0373091F01B
:1005F0003830A1F03430B9F4809180008F7D03C091
:10060000809180008F77809380000DC084B58F77B4
:1006100084BD09C08091B0008F7703C08091B00085
:100620008F7D8093B000F0E0EE0FFF1FE057FF4F8B
:10063000A591B4918FB7F894EC91611103C0209506
:100640002E2301C02E2B2C938FBF0895EF92FF9283
:100650000F931F93CF93DF93EC01623018F08F85D7
:1006600088608F876B8B1C8A80E48D8B80E18E8BFA
:1006700080E58F8B8C810E9406028D818F3F11F067
:100680000E9406028E810E9406027E0187E0E80E2B
:10069000F11C00E010E08F8584FD03C084E090E051
:1006A00002C088E090E00817190744F4F70181912F
:1006B0007F010E9406020F5F1F4FEDCF8BE39DE08D
:1006C0000197F1F760E08C810E94DA0260E08E8190
:1006D0000E94DA028D818F3F19F060E00E94DA02F9
:1006E0006F8564FD1DC063E0CE010E94CC000BE469
:1006F00016E4C8010197F1F763E0CE010E94CC0037
:10070000C8010197F1F763E0CE010E94CC0083E5B8
:1007100092E00197F1F762E0CE010E94CC0016C092
:100720006062CE010E9452018BE496E40197F1F7DA
:100730006F856062CE010E94520183E592E00197CD
:10074000F1F76F856062CE010E9452016F85606291
:10075000CE010E94520184E0888B6CE0CE010E94A1
:10076000520161E0CE010E9452018BE39FE10197AB
:10077000F1F782E0898B66E0CE01DF91CF911F9186
:100780000F91FF90EF900C9452011F920F920FB6B1
:100790000F9211242F933F938F939F93AF93BF9307
:1007A00080912D0190912E01A0912F01B0913001E7
:1007B0003091A00123E0230F2D3720F40196A11DD5
:1007C000B11D05C026E8230F0296A11DB11D20937F
:1007D000A00180932D0190932E01A0932F01B0933F
:1007E000300180919C0190919D01A0919E01B0915A
:1007F0009F010196A11DB11D80939C0190939D01C5
:10080000A0939E01B0939F01BF91AF919F918F9153
:100810003F912F910F900FBE0F901F9018951F9230
:100820000F920FB60F9211242F933F934F935F9324
:100830006F937F938F939F93AF93BF93EF93FF93A8
:10084000E0910201F09103010995FF91EF91BF91B1
:10085000AF919F918F917F916F915F914F913F9158
:100860002F910F900FBE0F901F9018951F920F920F
:100870000FB60F9211242F933F934F935F936F9373
:100880007F938F939F93AF93BF93EF93FF93E091E9
:100890000001F09101010995FF91EF91BF91AF9196
:1008A0009F918F917F916F915F914F913F912F9188
:1008B0000F900FBE0F901F901895259A2D9A2FEF2D
:1008C00080E792E0215080409040E1F700C00000B6
:1008D0001D9AF5CF0FB6F8940F9280915C0190911C
:1008E0005D010F900FBE08950FB6F8940F92FC01B2
:1008F000928D0F900FBE81E0911180E008950F92CC
:100900000FB6F8940F921F9211242F923F924F929C
:100910005F926F927F928F929F92AF92BF92CF928F
:10092000DF92EF92FF920F931F932F933F934F937A
:100930005F936F937F938F939F93AF93BF93CF9367
:10094000DF93EF93FF93A0915A01B0915B010DB635
:100950000D920EB60D9213BE809137018111F1C038
:1009600080915C0190915D01019690935D0180936F
:100970005C01009799F520913C0130913D01409137
:100980003A0150913B0150933D0140933C0130931B
:100990003B0120933A0120915E012F5F20935E017D
:1009A000E0913C01F0913D012081211107C02FEF22
:1009B0003FEF309336012093350110C0E0913C01A8
:1009C000F0913D010580F681E02D0680F781E02D54
:1009D00022813381309336012093350120913501F6
:1009E000309136018217930710F420E09AC020E07E
:1009F00019E0E0913C01F0913D013081311107C0D7
:100A00008FEF9FEF90933601809335018AC0E0917C
:100A10003C01F0913D010580F681E02D0680F781D3
:100A2000E02D428153818417950728F450933601B5
:100A30004093350176C0AF014E5F5F4FA285B3850D
:100A400064817581E680F780EB01FD82EC82C681CE
:100A5000D7817B836A8311966D917C91129764177D
:100A6000750721F41296DC93CE93119713861286A4
:100A70003C9131503C93A489B5891097F1F066857B
:100A80007785E088F188EB01FD82EC82C089D1890D
:100A90007B836A831196ED90FC901297BF01645F8F
:100AA0007F4FE616F70621F41296DC93CE9311974A
:100AB000158A148A3C9131503C93A6893091830168
:100AC0003A1710F4A09383011A9FD0011124BD019D
:100AD000615A7E4F7B01DB011196CD91DC9112971B
:100AE000D583C4836C817D81778366836C817D81AE
:100AF000DB0113965C934E9312975D834C83F386D0
:100B0000E286E70138813F5F3883A0915A01B091B6
:100B10005B01468956963C91431708F46ACF21E061
:100B200068CFE0915A01F0915B01E689D9E0ED9F31
:100B3000F0011124E15AFE4F8081823040F021E023
:100B400006C0809128018F5F8093280120E080916A
:100B50002901811103C0222309F466C08091370165
:100B6000882321F081E0809329015EC01092290141
:100B7000A0915A01B0915B01E0915A01F0915B01A3
:100B80002D913C918789908D82179307A8F08091D1
:100B90005A0190915B0180915A0190915B01259AD5
:100BA0002D9A2FEF67EA71E6215060407040E1F71F
:100BB00000C000001D9AF5CF8091830169E001C05B
:100BC0008150482F50E0649F9001659F300D1124A3
:100BD000F901E15AFE4F9081992391F3A181B281ED
:100BE00012960D90BC91A02DB283A1832E593E4F39
:100BF000A217B30731F412962D913C9113973283CB
:100C0000218399E0949FF001959FF00D1124E15A02
:100C1000FE4F0180F281E02D2681378130935B0108
:100C200020935A0180938301A0915A01B0915B01F6
:100C3000CD91CDBFDD91DEBFFF91EF91DF91CF91DF
:100C4000BF91AF919F918F917F916F915F914F91E4
:100C50003F912F911F910F91FF90EF90DF90CF90D8
:100C6000BF90AF909F908F907F906F905F904F90CC
:100C70003F902F901F900F900FBE0F900895FC0192
:100C80000FB6F8940F9280915C0190915D01DB01A9
:100C90002D913C912F3FBFEF3B0701F1B0915E01D9
:100CA000A08141815281BA1719F084179507C0F4C9
:100CB000DC01A41BB50BA217B30790F4481B590B1A
:100CC000240F351FDB012D933C9380915E018083BF
:100CD00080915C0190915D019283818380E001C0ED
:100CE00081E00F900FBE0895809137018F5F809350
:100CF000370108950E947F041895CF93DF93FC017C
:100D0000A085B1858281938124813581EC013D8369
:100D10002C83C481D5819B838A8311968D919C916C
:100D200012978E179F0721F41296DC93CE9311979A
:100D3000118610868C9181508C93DF91CF9108950C
:100D4000CF93DF939C01FB01DC011196CD91DC91E7
:100D50001297D383C2838C819D81958384838C81F8
:100D60009D81DC0113967C936E9312977D836C8337
:100D700031872087F90180818F5F8083DF91CF9158
:100D800008950F931F93CF93DF93DC011596ED9198
:100D9000FC911697C681D7818E01045F1F4FC80151
:100DA0000E947D0680913701811114C00A501109FB
:100DB000C8010E947D069E8980918301891710F4E5
:100DC00090938301B9E09B9FC0011124B801815A1F
:100DD0009E4F03C0B80180E591E00E94A006E0911B
:100DE0005A01F0915B019E898689891720F481E080
:100DF0008093290101C080E0DF91CF911F910F9175
:100E00000895EF92FF920F931F93CF93DF93EC011E
:100E10000FB6F8940F921E8D7C0181E1E80EF11C53
:100E200001E011165CF48989882341F0C7010E9412
:100E3000C1068111009329011150F3CF8FEF8E8FDE
:100E40000F900FBE0FB6F8940F921D8D7E0188E0B3
:100E5000E80EF11C01E011165CF48885882341F04E
:100E6000C7010E94C1068111009329011150F3CFDF
:100E70008FEF8D8F0F900FBEDF91CF911F910F914C
:100E8000FF90EF9008950F920FB6F8940F921F9273
:100E900011242F923F924F925F926F927F928F9286
:100EA0009F92AF92BF92CF92DF92EF92FF920F93F9
:100EB0001F932F933F934F935F936F937F938F93E2
:100EC0009F93AF93BF93CF93DF93EF93FF93A09143
:100ED0005A01B0915B010DB60D920EB60D92809144
:100EE0003701882321F081E0809329015EC01092B0
:100EF0002901A0915A01B0915B01E0915A01F09152
:100F00005B012D913C918789908D82179307A8F002
:100F100080915A0190915B0180915A0190915B01FF
:100F2000259A2D9A2FEF87EA91E621508040904034
:100F3000E1F700C000001D9AF5CF8091830169E0C0
:100F400001C08150482F50E0649F9001659F300D93
:100F50001124F901E15AFE4F9081992391F3A18167
:100F6000B28112960D90BC91A02DB283A1832E590F
:100F70003E4FA217B30731F412962D913C9113976F
:100F80003283218399E0949FF001959FF00D112405
:100F9000E15AFE4F0180F281E02D268137813093A6
:100FA0005B0120935A0180938301A0915A01B09173
:100FB0005B01CD91CDBFDD91DEBFFF91EF91DF9160
:100FC000CF91BF91AF919F918F917F916F915F91E1
:100FD0004F913F912F911F910F91FF90EF90DF90D4
:100FE000CF90BF90AF909F908F907F906F905F90C9
:100FF0004F903F902F901F900F900FBE0F9008952D
:101000008F929F92AF92BF92CF92DF92EF92FF9218
:101010000F931F93CF93DF930FB6F8940F928091A5
:10102000370181508093370180913701882311F077
:1010300080E0F2C0809159018823D1F3C0E0D0E074
:1010400029E0F22EEE24E39480915001882351F19F
:10105000E0915501F0915601C681D781CE010C96E1
:101060000E947D068E010E5F1F4FC8010E947D0603
:101070009E8980918301891710F490938301F99ED2
:10108000C0011124B801815A9E4F0E94A006E09130
:101090005A01F0915B019E8986899817A8F2E09227
:1010A0002901D2CFCD2B11F00E949100E0902801B0
:1010B000EE2009F4A9C089E0B82EAA24A394CC2478
:1010C000CA94DC2C8091370181118CC0C0915C01E5
:1010D000D0915D012196D0935D01C0935C01209772
:1010E000B9F480913C0190913D0120913A013091F9
:1010F0003B0130933D0120933C0190933B01809351
:101100003A0180915E018F5F80935E010E949100A1
:101110008091350190913601F12CC817D90708F458
:1011200051C0E0913C01F0913D018081811105C0E9
:10113000D0923601C092350145C0E0913C01F0915A
:101140003D010580F681E02D06811781D8011296B8
:101150008D919C911397C817D90728F49093360165
:10116000809335012FC04801B2E08B0E911CC40161
:101170000E947D06F80184899589892B21F0C80198
:101180000C960E947D06D80156968C919091830111
:10119000981710F480938301B89EC0011124B40104
:1011A000815A9E4F0E94A006E0915A01F0915B0186
:1011B000D80156969C918689981708F4B2CFFF24DF
:1011C000F394AFCFE0915A01F0915B01E689BE9EA6
:1011D000F0011124E15AFE4F8081823048F0FF2453
:1011E000F39406C0809128018F5F80932801F12C31
:1011F00080912901811101C0F110A0922901EA9486
:10120000E11060CF1092280180912901882309F410
:101210000FCF0E94430781E00F900FBEDF91CF9167
:101220001F910F91FF90EF90DF90CF90BF90AF9004
:101230009F908F9008950F931F93CF93DF938C010E
:10124000FB01808191818F3F2FEF920721F4E8010C
:10125000AF81B8850EC0D801139612962D913C919E
:101260001397E901488159818417950710F0D90136
:10127000F4CF12968D919C91139793838283EC0106
:10128000FD83EC83B583A4831396FC93EE931297AE
:1012900011870087F80180818F5F8083DF91CF9174
:1012A0001F910F910895FC0173836283918780875A
:1012B0004617570778F0421B530B848595854817CE
:1012C0005907C8F4BF016E5F7F4F80913101909143
:1012D00032010DC04217530718F46217730758F410
:1012E000BF016E5F7F4F80913301909134010E9466
:1012F0001B0980E0089581E00895EF92FF920F931B
:101300001F93CF93DF931F92CDB7DEB77C0100917F
:101310005C0110915D0180915A0190915B010296F0
:1013200069830E947D0669818FEFE816F80699F4BB
:10133000662389F060915A0170915B016E5F7F4F67
:101340008EE391E00F90DF91CF911F910F91FF906D
:10135000EF900C94A006E00EF11EE0915A01F0917E
:101360005B01F382E28260915A0170915B01E016A9
:10137000F10678F480913A0190913B016E5F7F4FC6
:101380000F90DF91CF911F910F91FF90EF900C94F0
:101390001B0980913C0190913D016E5F7F4F0E943F
:1013A0001B098091350190913601E816F90620F469
:1013B000F0923601E09235010F90DF91CF911F91AD
:1013C0000F91FF90EF900895FC0103969283818323
:1013D0002FEF3FEF34832383968385839087878322
:1013E00010820895CF93DF93009751F0EC010E9493
:1013F0007406CE010E941A11DF91CF910C9400085F
:10140000DF91CF910895CF93DF93CDB7DEB72C97BF
:101410000FB6F894DEBF0FBECDBFE0913301F0915F
:101420003401FF24F3948081882339F0F12C058066
:10143000F681E02D0081118102C000E010E00E94E1
:1014400074060E946A046C0180912B0190912C011A
:10145000C816D90620F40E940B0F81E001C080E07D
:10146000D0922C01C0922B01811178C0F11034C0B0
:10147000C016D106C8F10E940008E0913301F09136
:1014800034010580F681E02DE680F780C7010296E1
:101490000E947D06D7011E968C911E97813089F49B
:1014A0001C966D917C911D97600F711F9801A6018C
:1014B000C7010E945309882321F0B801C7010E9487
:1014C000E20ED7015196ED91FC915297C701099513
:1014D00094E0C92ED12C52C0E0913101F09132013B
:1014E000BB24B39480818111B12CE0903801F0903D
:1014F00039010FB6F8940F92F701858D8F3F09F4EB
:10150000158ED7015E968C915E978F3F11F45E9693
:101510001C920F900FBEF701828D811115C0609152
:101520005A0170915B01645F7F4FC70141960E9431
:10153000A006B11004C0C8018C199D0902C08FEF2C
:101540009FEF6B2D0E947D09C7010E9401070E9439
:1015500000088111BDCF0E944307BACF0E94000846
:10156000B7CFEA80FB80F801648575856E0D7F1D1D
:101570009701C8010E94530981118DC089E0782E1E
:1015800000913801109139011A86198680E05801BE
:10159000B1E1AB0EB11C0FB6F8940F92F801F28CCA
:1015A000FF2009F49FC0448D4423C9F050E0868198
:1015B0009781840F951F97838683228133818217B9
:1015C000930720F08081918197838683D8011696B6
:1015D0006D917C911797CE0101960E94B711FA94F4
:1015E000F801F28E80819181892BB1F480915A01AA
:1015F00090915B01892B39F0E0915A01F0915B01E8
:1016000082A18F5F82A380915A0190915B01D801E2
:1016100013969C938E931297F8018085882339F056
:10162000C80108960E94C10681110E9443070F90CD
:101630000FBE898087FCA4CF0C811D81D8011A962A
:101640008D919C911B97892B21F0C80102960E94D5
:101650007D060E946A04AC0180912B0190912C01BF
:101660004817590730F44B875C870E940B0F5C8545
:101670004B8550932C0140932B01882D880C990B9E
:10168000AA0BBB0B8A30910508F07ACFFC01EC5C09
:10169000FF4F0C947F10D8015196ED91FC91529719
:1016A000C8010995F8018685813009F067CF8485E6
:1016B0009585B701680F791FC8010E94E20E5ECFC1
:1016C0006A817B81D8011D967C936E931C97640F71
:1016D000751F9A01C8010E94530950CFC8010E948A
:1016E000F2094CCF29853A85232B19F40F900FBEB0
:1016F00094CE811109C080915E018E8380915C013E
:1017000090915D0198878F830F900FBE0E947406A1
:101710000FB6F8940F92D8015D968C915D978F3F2C
:1017200011F45D961C92F801868D8F3F09F4168E98
:101730000F900FBEBE01675F7F4FCE0106960E94DD
:101740003F06811187C0C8010E947404882309F4F0
:101750007BC0D8018D919C91892B09F05AC00FB69E
:10176000F8940F92F801E280F380E114F10409F497
:101770004EC0D70156968C915697E0915A01F09140
:101780005B019689891708F042C01C962D913C9107
:101790001D9737FD0CC0E0915A01F0915B019689CD
:1017A0009601291B31091D963C932E931C97789E18
:1017B000C0011124815A9E4FF701228533852817D5
:1017C0003907F1F44701F2E08F0E911CC4010E9429
:1017D0007D06E0915A01F0915B012689D70156966A
:1017E0002C9380918301821710F420938301729EC1
:1017F000C0011124B401815A9E4F0E94A00607C067
:10180000E0915A01F0915B018689F701868B0F9078
:101810000FBEE984FA8460915A0170915B01645FA4
:101820007F4FC5010E941B0961E0C7010E947D092D
:10183000C8010E9401070E940008882311F081E07E
:10184000AACE0E944307FBCFC8010E9401070E9455
:101850000008F5CFC8010E9401070E940008C801D6
:101860000E947404882359F3D8CD0F931F93CF930C
:10187000DF9300D0CDB7DEB789839A830E947406C8
:1018800089819A810E9485108C010E9400080115AF
:10189000110511F40E945D04C8010F900F90DF91B3
:1018A000CF911F910F910895E4E8F1E01382128225
:1018B0008EE091E0918380838DE084838FEF858338
:1018C0008CE086838BE087838AE0808789E081874C
:1018D00088E082871386148615861686178661E04F
:1018E000CF010C942603AF92BF92CF92DF92EF927A
:1018F000FF920F931F93CF93DF9300D000D01F92DE
:10190000CDB7DEB78C017B011D821C8290E05801AF
:1019100088E0A80EB11C0FB6F8940F92F801228D42
:10192000838D281708F06DC0D28C448D41113FC0C3
:1019300080819181892B09F052C0F801E280F38007
:10194000E114F10411F480E02EC0F70182A181506E
:1019500082A3268991A12917B1F38111F4CF5701F0
:10196000F2E0AF0EB11CC5010E947D06F70191A106
:10197000968B492F50E024E030E0241B350B35874F
:10198000248780918301891710F49093830129E0C3
:10199000249FC001259F900D1124B501815A9E4FAF
:1019A0000E94A00681E0F8011382128219C050E063
:1019B000B701F801848195810E94B711F801248D47
:1019C00084819581820F911D958384832281338147
:1019D0008217930720F0808191819583848380E032
:1019E000D394F801D28E9189992321F0C8014196B0
:1019F0000E94C10681110E9443070F900FBE81E033
:101A000060C02C813D81232B19F40F900FBE58C06C
:101A1000911109C080915E01898380915C01909150
:101A20005D019B838A830F900FBE0E9474060FB6E0
:101A3000F8940F92F801858D8F3F09F4158EF80107
:101A4000868D8F3F09F4168E0F900FBEBE016C5F1E
:101A50007F4FCE0101960E943F0681112CC00FB628
:101A6000F8940F92F801928D838D0F900FBE98130A
:101A70001CC0CC80DD8020915A0130915B01B901FE
:101A8000645F7F4FC5010E941B0961E0C6010E948F
:101A90007D09C8010E9401070E940008882311F0F7
:101AA00091E039CF0E944307FBCFC8010E94010794
:101AB0000E940008F5CFC8010E9401070E9400089B
:101AC00080E00F900F900F900F900F90DF91CF91CB
:101AD0001F910F91FF90EF90DF90CF90BF90AF904C
:101AE00008957F928F929F92AF92BF92CF92DF9292
:101AF000EF92FF920F931F93CF93DF93982EC92EEF
:101B0000762E872EEA01D22ECA010E94350C5C0186
:101B1000892B09F448C188E290E00E94350C7C01D1
:101B20000097D9F0DC015896BC92AE925797AE015F
:101B300065EA70E0C5010E94C0112197D701579650
:101B4000ED91FC915897EC0FFD1FB701675E7F4F39
:101B5000A72DB82DCD01089607C0C5010E94F20936
:101B600022C1A817B90749F09D014D91EB01499396
:101B7000BE01E90128812111F4CFD70190961C9272
:101B80002D2D243008F023E0E7012E8B29A31AA283
:101B90001B861A861D8A1C8AF986E88684E090E0F6
:101BA000821B91099D878C87FB8AEA8A1BA21CA253
:101BB0001DA21EA21FA291E19083DF01119782E274
:101BC0008C93119723E32C9311979C921197CC92AD
:101BD00011971C92119720E82C9311971C92119742
:101BE00022E02C93119723E02C93119724E02C935F
:101BF000119725E02C93119726E02C93119727E05D
:101C00002C93119728E02C93119729E02C9311978E
:101C100020E12C9311979C93119792E19C9311973B
:101C200093E19C93119794E19C93119795E19C9378
:101C3000119796E19C93119797E19C93119798E1E6
:101C40009C93119799E19C93119790E29C93119723
:101C500091E29C9311978C93119783E28C93119747
:101C60001C9211971C92119786E28C93119787E230
:101C70008C93119788E28C93119789E28C9311973A
:101C800080E38C93119781E38C93B697F983E88373
:101C90000115110519F0F801F182E0820FB6F894F0
:101CA0000F92809159018F5F8093590180915A0161
:101CB00090915B01892BD1F5F0925B01E0925A0182
:101CC00080915901813009F043C08FE591E00E9475
:101CD000E40988E691E00E94E40981E791E00E942E
:101CE000E4098AE791E00E94E40980EC91E00E9417
:101CF000E40987EB91E00E94E40980E591E00E940D
:101D0000E40987E491E00E94E4098EE391E00E94F7
:101D1000E40980EC91E090933D0180933C0187EBD6
:101D200091E090933B0180933A0112C08091CA01E7
:101D300081110EC0E0915A01F0915B019689D701A3
:101D400056968C91891720F0F0925B01E0925A012F
:101D50008091C9018F5F8093C901E7018E899091BD
:101D60008301981710F480938301D9E08D9FC001FF
:101D70001124B7016E5F7F4F815A9E4F0E94A006CB
:101D80000F900FBE8091CA01882359F0E0915A014B
:101D9000F0915B019689F7018689981710F40E94EB
:101DA000430781E001C08FEFDF91CF911F910F9129
:101DB000FF90EF90DF90CF90BF90AF909F908F906B
:101DC0007F900895CF93DF9300D000D01F92CDB7BE
:101DD000DEB79C018091380190913901009761F044
:101DE00019827B836A833D832C832091CA0122233D
:101DF00029F02091370102C080E005C0BE016F5F6D
:101E00007F4F0E94730C0F900F900F900F900F90C8
:101E1000DF91CF910895EF92FF920F931F93CF938D
:101E2000DF93E0913301F09134018081882369F1DF
:101E30000580F681E02D00811181C681D7817E0168
:101E400082E0E80EF11CC7010E947D06E989FA894B
:101E5000CE0109958E85813021F72C853D85200F97
:101E6000311F0217130760F43B832A83D987C88781
:101E7000B70180913301909134010E941B09D1CFA9
:101E8000B801CE010E94E20ECCCF80913101909139
:101E900032019093340180933301F0933201E09347
:101EA0003101DF91CF911F910F91FF90EF90089535
:101EB000789484B5826084BD84B5816084BD85B525
:101EC000826085BD85B5816085BD80916E00816031
:101ED00080936E00109281008091810082608093D7
:101EE00081008091810081608093810080918000D9
:101EF0008160809380008091B10084608093B10004
:101F00008091B00081608093B00080917A008460FD
:101F100080937A0080917A00826080937A00809129
:101F20007A00816080937A0080917A008068809343
:101F30007A001092C1000E94F40105EB11E020E04C
:101F400040EC50E062E171E086EB91E00E94710D9F
:101F5000813009F0B0C00FB6F8940F92809138012B
:101F600090913901892B09F04BC08AEA91E00E94D7
:101F7000E40981EA91E00E94E4098AEA91E0909301
:101F800034018093330181EA91E090933201809390
:101F9000310181E590E00E94350CEC01009761F180
:101FA0004F96998388838AE08B8F85E08C8F0FB65C
:101FB000F8940F92288139819B8D4C8D949FC0019C
:101FC0001124B901680F791F7B836A831A8E3D83C0
:101FD0002C83841B9109820F931F9F838E838FEF25
:101FE0008D8F8E8FCE0108960E94E409CE01419616
:101FF0000E94E4090F900FBED0933901C0933801BD
:102000000F900FBE8091380190913901892B09F40E
:1020100052C003EB11E023E045E550E067E171E0D9
:1020200083E09AE00E94710D813009F044C0F89479
:102030002FEF3FEF30933601209335018093CA0193
:1020400010925D0110925C01A89520EC88E190E06F
:102050000FB6F894A895809360000FBE209360009F
:10206000A0915A01B0915B01CD91CDBFDD91DEBF52
:10207000FF91EF91DF91CF91BF91AF919F918F91A0
:102080007F916F915F914F913F912F911F910F9190
:10209000FF90EF90DF90CF90BF90AF909F908F9088
:1020A0007F906F905F904F903F902F901F900F9078
:1020B0000FBE0F9008950E945D04A1E21A2EAA1B84
:1020C000BB1BFD010DC0AA1FBB1FEE1FFF1FA217E8
:1020D000B307E407F50720F0A21BB30BE40BF50BE5
:1020E000661F771F881F991F1A9469F7609570956E
:1020F000809590959B01AC01BD01CF010895EE0F35
:10210000FF1F0590F491E02D0994CF93DF93823067
:10211000910510F482E090E0E091CD01F091CE01C4
:1021200020E030E0C0E0D0E0309711F140815181F3
:1021300048175907C0F04817590761F48281938105
:10214000209719F09B838A832BC09093CE018093B4
:10215000CD0126C02115310519F04217530718F497
:102160009A01BE01DF01EF010280F381E02DDCCF97
:102170002115310509F1281B390B2430310590F464
:1021800012968D919C9113976115710521F0FB01B9
:102190009383828304C09093CE018093CD01FD018F
:1021A000329644C0FD01E20FF31F819391932250B8
:1021B00031092D933C933AC02091CB013091CC0151
:1021C000232B41F420910601309107013093CC017B
:1021D0002093CB0120910401309105012115310597
:1021E00041F42DB73EB74091080150910901241BDD
:1021F000350BE091CB01F091CC01E217F307A0F48D
:102200002E1B3F0B2817390778F0AC014E5F5F4F4C
:102210002417350748F04E0F5F1F5093CC014093B1
:10222000CB018193919302C0E0E0F0E0CF01DF9118
:10223000CF9108950F931F93CF93DF93009709F4E5
:102240008CC0FC013297138212820091CD01109153
:10225000CE010115110581F420813181820F931F78
:102260002091CB013091CC012817390779F5F093F3
:10227000CC01E093CB0171C0D80140E050E0AE1733
:10228000BF0750F412962D913C911397AD01211583
:10229000310509F1D901F3CF9D01DA01338322839E
:1022A00060817181860F971F8217930769F4EC0193
:1022B00028813981260F371F2E5F3F4F31832083BE
:1022C0008A819B8193838283452B29F4F093CE01ED
:1022D000E093CD0142C01396FC93EE931297ED016B
:1022E000499159919E01240F351FE217F30771F4AC
:1022F00080819181840F951F029611969C938E93F5
:102300008281938113969C938E931297E0E0F0E084
:10231000D80112968D919C911397009719F0F801AE
:102320008C01F6CF8D919C9198012E5F3F4F820FCB
:10233000931F2091CB013091CC012817390769F404
:10234000309729F41092CE011092CD0102C0138271
:1023500012821093CC010093CB01DF91CF911F919A
:102360000F91089581E090E0F8940C94C711FB015F
:10237000DC0102C001900D9241505040D8F7089501
:10238000DC0101C06D9341505040E0F70895F8948E
:02239000FFCF7D
:10239200500250020000CF018000000000004C01FA
:1023A200250249444C4500546D7220537663000067
:00000001FF
