:100000000C945D000C9485000C9485000C94850084
:100010000C9485000C9485000C9485000C9485004C
:100020000C9485000C9485000C9485000C9485003C
:100030000C9485000C9485000C9485000C9485002C
:100040000C9473020C9485000C94E3020C94BD0292
:100050000C9485000C9485000C9485000C9485000C
:100060000C9485000C94850000000008000201003B
:100070000003040700000000000000000000000072
:10008000250028002B0000000000240027002A0083
:10009000040404040404040402020202020203032E
:1000A0000303030301020408102040800102040836
:1000B0001020010204081020150311241FBECFEFE9
:1000C000D8E0DEBFCDBF11E0A0E0B1E0ECE0F8E1A8
:1000D00002C005900D92A832B107D9F722E0A8E23C
:1000E000B1E001C01D92AE31B207E1F710E0CDE5FD
:1000F000D0E004C02197FE010E942109CC35D10730
:10010000C9F70E9466030C94040C0C94000090E064
:10011000FC01EC55FF4F2491FC01E057FF4F849107
:10012000882399F090E0880F991FFC01EA57FF4F50
:10013000A591B491FC01E458FF4F859194918FB73C
:10014000F894EC91E22BEC938FBF0895CF92DF925D
:10015000EF92FF920F931F93CF93DF936C017A017D
:100160008B01C0E0D0E0CE15DF0589F0D8016D919C
:100170008D01D601ED91FC910190F081E02DC60139
:100180000995892B11F47E0102C02196ECCFC7019D
:10019000DF91CF911F910F91FF90EF90DF90CF9063
:1001A0000895089580E090E00895FC01538D448DFA
:1001B000252F30E0842F90E0821B930B541710F012
:1001C000CF96089501970895FC01918D828D98171F
:1001D00061F0828DDF01A80FB11D5D968C91928D2B
:1001E0009F5F9F73928F90E008958FEF9FEF089528
:1001F000FC01918D828D981731F0828DE80FF11DF1
:10020000858D90E008958FEF9FEF0895FC01918D0B
:10021000228D892F90E0805C9F4F821B91098F7304
:100220009927089581E591E00E94060121E0892B3C
:1002300009F420E0822F0895FC01848DDF01A80FCE
:10024000B11DA35ABF4F2C91848D90E001968F73FE
:100250009927848FA689B7892C93A089B1898C911D
:1002600080648C93938D848D981306C00288F389E3
:10027000E02D80818F7D80830895EF92FF920F9310
:100280001F93CF93DF93EC0181E0888F9B8D8C8D42
:10029000981305C0E889F989808185FD24C0F62E70
:1002A0000B8D10E00F5F1F4F0F731127E02E8C8D09
:1002B000E8120CC00FB607FCFACFE889F9898081F3
:1002C00085FFF5CFCE010E941C01F1CF8B8DFE0181
:1002D000E80FF11DE35AFF4FF0820B8FEA89FB898B
:1002E0008081806207C0EE89FF896083E889F9898F
:1002F00080818064808381E090E0DF91CF911F91C5
:100300000F91FF90EF900895CF93DF93EC01888DCC
:100310008823C9F0EA89FB89808185FD05C0A88909
:10032000B9898C9186FD0FC00FB607FCF5CF80818F
:1003300085FFF2CFA889B9898C9185FFEDCFCE01D9
:100340000E941C01E7CFDF91CF91089580E090E0FB
:10035000892B29F00E94120181110C94000008954C
:1003600090E0FC01E859FF4F3491FC01EC55FF4F40
:100370002491FC01E057FF4FE491EE2309F43BC0C8
:10038000332339F1333091F038F43130A9F0323081
:1003900001F584B58F7D12C0373091F03830A1F06F
:1003A0003430B9F4809180008F7D03C0809180004B
:1003B0008F77809380000DC084B58F7784BD09C08E
:1003C0008091B0008F7703C08091B0008F7D8093C3
:1003D000B000F0E0EE0FFF1FE458FF4FA591B4917D
:1003E0008FB7F894EC91611103C020952E2301C0C2
:1003F0002E2B2C938FBF08951F93CF93DF93182F2D
:10040000EB010E948700209711F460E004C0CF3F09
:10041000D10539F461E0812FDF91CF911F910C94C8
:10042000B001E12FF0E0E859FF4FE491E330F9F03B
:1004300048F4E130B9F0E230A1F584B5806284BDC2
:10044000C8BD34C0E730E9F0E83019F1E43049F5CF
:1004500080918000806280938000D0938B00C09355
:100460008A0024C084B5806884BDC7BD1FC0809148
:100470008000806880938000D0938900C0938800BA
:1004800015C08091B00080688093B000C093B30025
:100490000DC08091B00080628093B000C093B40022
:1004A00005C0C038D1050CF0B5CFAFCFDF91CF91EB
:1004B0001F9108958E3008F08E508770806480936D
:1004C0007C0080917A00806480937A0080917A0029
:1004D00086FDFCCF809178002091790090E0922BEE
:1004E00008950E9427091F920F920FB60F921124B0
:1004F0002F933F938F939F93AF93BF9380914D0121
:1005000090914E01A0914F01B091500130914C015A
:1005100023E0230F2D3720F40196A11DB11D05C046
:1005200026E8230F0296A11DB11D20934C01809354
:100530004D0190934E01A0934F01B09350018091D3
:10054000480190914901A0914A01B0914B01019657
:10055000A11DB11D8093480190934901A0934A01C8
:10056000B0934B01BF91AF919F918F913F912F918C
:100570000F900FBE0F901F9018951F920F920FB6FD
:100580000F9211242F933F934F935F936F937F9319
:100590008F939F93AF93BF93EF93FF9381E591E088
:1005A0000E941C01FF91EF91BF91AF919F918F919C
:1005B0007F916F915F914F913F912F910F900FBE5F
:1005C0000F901F9018951F920F920FB60F92112443
:1005D0002F938F939F93EF93FF93E0916101F0919D
:1005E00062018081E0916701F091680182FD12C093
:1005F000908180916A018F5F8F7320916B018217C8
:1006000051F0E0916A01F0E0EF5AFE4F958F809330
:100610006A0101C08081FF91EF919F918F912F918D
:100620000F900FBE0F901F901895E1E5F1E0138237
:10063000128288EE93E0A0E0B0E084839583A683E5
:10064000B78384E091E09183808385EC90E0958787
:10065000848784EC90E09787868780EC90E0918B8C
:10066000808B81EC90E0938B828B82EC90E0958B79
:10067000848B86EC90E0978B868B118E128E138E76
:10068000148EE6E0F2E080E090E0A0E8BFE3808333
:100690009183A283B38384839583A683B7834CEE2F
:1006A00051E568EB7DE34087518762877387EEEE03
:1006B000F1E080839183A283B38384839583A683AF
:1006C000B78340875187628773870895CF93DF93FD
:1006D000CDB7DEB7E6970FB6F894DEBF0FBECDBF3D
:1006E000789484B5826084BD84B5816084BD85B50D
:1006F000826085BD85B5816085BD80916E00816019
:1007000080936E00109281008091810082608093BE
:1007100081008091810081608093810080918000C0
:100720008160809380008091B10084608093B100EB
:100730008091B00081608093B00080917A008460E5
:1007400080937A0080917A00826080937A00809111
:100750007A00816080937A0080917A00806880932B
:100760007A001092C100E0916101F091620182E093
:100770008083E0915D01F0915E011082E0915F0164
:10078000F09160018FEC808310926901E091650126
:10079000F091660186E08083E0916301F09164014D
:1007A000808180618083E0916301F09164018081A8
:1007B00088608083E0916301F091640180818068AA
:1007C0008083E0916301F091640180818F7D80835B
:1007D00087E00E948700109280001092810084B10F
:1007E000866084B9809180008260809380008091CF
:1007F000810088618093810080918000806880936F
:1008000080008091800080628093800080918100D0
:10081000816080938100109289001092880010926C
:100820008B0010928A0080918800909189009093AB
:100830002B0180932A0180918A0090918B009093E4
:1008400029018093280184EF91E0909387008093A1
:1008500086009E012F5F3F4F3AA729A78FE00E9495
:100860005A027C0180E10E945A028C0180910A02A6
:1008700090910B02A0910C02B0910D028BA79CA746
:10088000ADA7BEA720910602309107024091080251
:1008900050910902BC01CD010E9412079B01AC01DD
:1008A0006BA57CA58DA59EA50E947E072B013C0112
:1008B00060931A0270931B0280931C0290931D0296
:1008C0008090160290901702A0901802B090190222
:1008D000B701FF0C880B990B0E942808A501940111
:1008E0000E9411079B01AC01C301B2010E94B40830
:1008F0009B01AC01C501B4010E9412076B017C0190
:100900006093120270931302809314029093150265
:10091000A301920160E070E080E89FE30E9411076C
:100920002BA53CA54DA55EA50E94B4082B013C015A
:10093000A7019601C501B4010E9411079F7720917C
:100940000E0230910F0240911002509111020E944C
:10095000B4089B01AC01C301B2010E94120760936D
:100960000A0270930B0280930C0290930D02C092C6
:100970001602D0921702E0921802F0921902C701F3
:10098000B6010E94F0077CA76BA76F3F714024F06F
:100990008EEF91E09CA78BA7ABA5BCA5B7FF02C0CB
:1009A0001CA61BA62BA53CA530934701209346010E
:1009B0008091F2019091F301A091F401B091F501C1
:1009C0008FA798ABA9ABBAAB2091EE013091EF01A4
:1009D0004091F0015091F101BC01CD010E9412073C
:1009E0009B01AC016FA578A989A99AA90E947E07ED
:1009F0002B013C0160930202709303028093040276
:100A0000909305028090FE019090FF01A09000025B
:100A1000B0900102B801110F880B990B0E942808B1
:100A2000A50194010E9411079B01AC01C301B20111
:100A30000E94B4089B01AC01C501B4010E941207D9
:100A40006B017C016093FA017093FB018093FC01C0
:100A50009093FD01A301920160E070E080E89FE3C4
:100A60000E9411072FA538A949A95AA90E94B408C4
:100A70002B013C01A7019601C501B4010E94110799
:100A80009F772091F6013091F7014091F801509144
:100A9000F9010E94B4089B01AC01C301B2010E949C
:100AA00012076093F2017093F3018093F401909325
:100AB000F501C092FE01D092FF01E0920002F09297
:100AC0000102C701B6010E94F0071B019FEF291622
:100AD00091E0390624F09EEF292E3324339437FE1B
:100AE00002C0212C312C309245012092440167EA4A
:100AF00070E0ABA5BCA56A1B7B0B709343016093B0
:100B0000420186E9E82EF12CE218F308F092410147
:100B1000E092400180913E0190913F018B01081BC2
:100B2000190B10933D0100933C0180913A01909183
:100B30003B019701281B390B38AB2FA730933901A4
:100B400020933801072E000C880B990B0E9428086F
:100B50002B013C012AE037ED43E25CE30E94B4083C
:100B60002091340130913501409136015091370187
:100B70000E9412074B015C016093340170933501B0
:100B80008093360190933701B701FF0C880B990BC6
:100B90000E9428086B017C012AE037ED43E25CE308
:100BA0000E94B4082091300130913101409132010E
:100BB000509133010E9412076BAB7CAB8DAB9EABA7
:100BC000609330017093310180933201909333012F
:100BD00020E030E040E250E4C301B2010E94B408DA
:100BE0002B013C012DEC3CEC4CEC5DE3C501B40168
:100BF0000E94B4089B01AC01C301B2010E9412071C
:100C00004B015C01B801110F880B990B0E94280859
:100C100020E030E040EF50E40E94B4089B01AC01BA
:100C2000C501B4010E9412070E94F0074B015C014C
:100C30008B0170932F0160932E0120E030E040E2A1
:100C400050E4C701B6010E94B4086B017C012DEC91
:100C50003CEC4CEC5DE36BA97CA98DA99EA90E949C
:100C6000B4089B01AC01C701B6010E9412076B01D9
:100C70007C01AFA5B8A9BD01BB0F880B990B0E94E1
:100C8000280820E030E040EF50E40E94B4089B01C7
:100C9000AC01C701B6010E9412070E94F0072B01A8
:100CA0003C017B0170932D0160932C0118141904F1
:100CB00074F461E08BE00E94B001013F1105E4F0A3
:100CC00020EF30E030932F0120932E0115C0002734
:100CD00011270819190910932F0100932E0160E0C4
:100CE0008BE00E94B001013F110534F080EF90E0ED
:100CF00090932F0180932E0160912E0170912F010E
:100D000086E00E94FC0110922F0110922E01109299
:100D100034011092350110923601109237011E14E1
:100D20001F047CF461E087E00E94B00191EFE916B6
:100D3000F104E4F0A0EFB0E0B0932D01A0932C01FA
:100D400015C0002711270419150910932D010093D0
:100D50002C0160E087E00E94B001013F110534F0F2
:100D600020EF30E030932D0120932C0160912C0175
:100D700070912D0185E00E94FC0110922D011092CE
:100D80002C01109230011092310110923201109218
:100D90003301809142019091430190933F018093F0
:100DA0003E01809140019091410190933B018093DD
:100DB0003A015F924F929F928F923F922F923CA561
:100DC0003F938BA58F93A2E1B1E0BF93AF9381E0F6
:100DD00090E08C0F9D1F9F938F930E942C09E9A593
:100DE000FAA501900020E9F73197AF01A9A5BAA5AE
:100DF0004A1B5B0BBE016F5F7F4F81E591E00E9454
:100E0000A60042E050E065E271E081E591E00E94D9
:100E1000A6000FB6F894DEBF0FBECDBF0E94A6019C
:100E20001DCD5058BB27AA270E9429070C947A0889
:100E30000E946C0838F00E94730820F039F49F3F3C
:100E400019F426F40C9469080EF4E095E7FB0C9471
:100E50006308E92F0E948B0858F3BA1762077307DB
:100E60008407950720F079F4A6F50C94AD080EF4EC
:100E7000E0950B2EBA2FA02D0B01B90190010C01AA
:100E8000CA01A0011124FF27591B99F0593F50F4C2
:100E9000503E68F11A16F040A22F232F342F44271A
:100EA000585FF3CF469537952795A795F040539512
:100EB000C9F77EF41F16BA0B620B730B840BBAF0E2
:100EC0009150A1F0FF0FBB1F661F771F881FC2F74D
:100ED0000EC0BA0F621F731F841F48F48795779561
:100EE0006795B795F7959E3F08F0B0CF9395880F1B
:100EF00008F09927EE0F9795879508950E9492071D
:100F00000C947A080E94730858F00E946C0840F014
:100F100029F45F3F29F00C94630851110C94AE083A
:100F20000C9469080E948B0868F39923B1F3552348
:100F300091F3951B550BBB27AA27621773078407EC
:100F400038F09F5F5F4F220F331F441FAA1FA9F382
:100F500035D00E2E3AF0E0E832D091505040E69570
:100F6000001CCAF72BD0FE2F29D0660F771F881FD1
:100F7000BB1F261737074807AB07B0E809F0BB0BC4
:100F8000802DBF01FF2793585F4F3AF09E3F5105D8
:100F900078F00C9463080C94AE085F3FE4F3983E3D
:100FA000D4F3869577956795B795F7959F5FC9F7C1
:100FB000880F911D9695879597F90895E1E0660F42
:100FC000771F881FBB1F621773078407BA0720F0BB
:100FD000621B730B840BBA0BEE1F88F7E095089524
:100FE0000E94F7076894B1110C94AE0808950E940E
:100FF000930888F09F5798F0B92F9927B751B0F010
:10100000E1F0660F771F881F991F1AF0BA95C9F78C
:1010100014C0B13091F00E94AD08B1E008950C9475
:10102000AD08672F782F8827B85F39F0B93FCCF328
:10103000869577956795B395D9F73EF49095809509
:10104000709561957F4F8F4F9F4F0895E89409C029
:1010500097FB3EF490958095709561957F4F8F4FEB
:101060009F4F9923A9F0F92F96E9BB279395F69501
:10107000879577956795B795F111F8CFFAF4BB0F7F
:1010800011F460FF1BC06F5F7F4F8F4F9F4F16C0E3
:10109000882311F096E911C0772321F09EE8872F6D
:1010A000762F05C0662371F096E8862F70E060E029
:1010B0002AF09A95660F771F881FDAF7880F9695A2
:1010C000879597F9089597F99F6780E870E060E049
:1010D00008959FEF80EC089500240A9416161706D1
:1010E00018060906089500240A9412161306140619
:1010F00005060895092E0394000C11F4882352F07C
:10110000BB0F40F4BF2B11F460FF04C06F5F7F4F33
:101110008F4F9F4F089557FD9058440F551F59F01A
:101120005F3F71F04795880F97FB991F61F09F3FD4
:1011300079F087950895121613061406551FF2CFFD
:101140004695F1DF08C0161617061806991FF1CF4D
:1011500086957105610508940895E894BB27662774
:101160007727CB0197F908950E94C7080C947A0855
:101170000E946C0838F00E94730820F0952311F04B
:101180000C9463080C94690811240C94AE080E9416
:101190008B0870F3959FC1F3950F50E0551F629F28
:1011A000F001729FBB27F00DB11D639FAA27F00DC0
:1011B000B11DAA1F649F6627B00DA11D661F829FE7
:1011C0002227B00DA11D621F739FB00DA11D621FCC
:1011D000839FA00D611D221F749F3327A00D611DE9
:1011E000231F849F600D211D822F762F6A2F1124CB
:1011F0009F5750409AF0F1F088234AF0EE0FFF1FFE
:10120000BB1F661F771F881F91505040A9F79E3F54
:10121000510580F00C9463080C94AE085F3FE4F332
:10122000983ED4F3869577956795B795F795E795AA
:101230009F5FC1F7FE2B880F911D9695879597F9B3
:101240000895EE0FFF1F0590F491E02D099481E0C1
:1012500090E0F8940C94040CAEE0B0E0E2E3F9E026
:101260000C94DB0B0D891E8986E08C831A8309831D
:101270008FEF9FE79E838D83AE01475E5F4F6F893F
:10128000788DCE0101960E944F092F813885F80193
:10129000E20FF31F10822E96E4E00C94F70BACE003
:1012A000B0E0E5E5F9E00C94CD0B7C016B018A011F
:1012B000FC0117821682838181FFBDC1CE01019698
:1012C0004C01F7019381F60193FD859193FF819184
:1012D0006F01882309F4ABC1853239F493FD859100
:1012E00093FF81916F01853229F4B70190E00E944C
:1012F000370BE7CF512C312C20E02032A0F48B3279
:1013000069F030F4803259F0833269F420612CC0E6
:101310008D3239F0803339F4216026C02260246098
:1013200023C0286021C027FD27C030ED380F3A3098
:1013300078F426FF06C0FAE05F9E300D1124532E8C
:1013400013C08AE0389E300D1124332E20620CC069
:101350008E3221F426FD6BC1206406C08C3611F458
:10136000206802C0883641F4F60193FD859193FF11
:1013700081916F018111C1CF982F9F7D955493303A
:1013800028F40C5F1F4FFFE3F9830DC0833631F063
:10139000833771F0833509F05BC022C0F80180818A
:1013A00089830E5F1F4F44244394512C540115C070
:1013B0003801F2E06F0E711CF801A080B18026FFA9
:1013C00003C0652D70E002C06FEF7FEFC5012C8771
:1013D0000E942C0B2C0183012C852F77222E17C005
:1013E0003801F2E06F0E711CF801A080B18026FF79
:1013F00003C0652D70E002C06FEF7FEFC5012C8741
:101400000E94210B2C012C852068222E830123FCB5
:101410001BC0832D90E048165906B0F4B70180E256
:1014200090E00E94370B3A94F4CFF50127FC8591A8
:1014300027FE81915F01B70190E00E94370B3110C8
:101440003A94F1E04F1A51084114510471F7E5C084
:10145000843611F0893639F5F80127FF07C060811D
:101460007181828193810C5F1F4F08C060817181FF
:10147000072E000C880B990B0E5F1F4F2F76722ED4
:1014800097FF09C090958095709561957F4F8F4F1C
:101490009F4F2068722E2AE030E0A4010E946F0B5B
:1014A000A82EA81844C0853729F42F7EB22E2AE032
:1014B00030E025C0F22FF97FBF2E8F36C1F018F42F
:1014C000883579F0B4C0803719F0883721F0AFC083
:1014D0002F2F2061B22EB4FE0DC08B2D8460B82E4C
:1014E00009C024FF0AC09F2F9660B92E06C028E0CD
:1014F00030E005C020E130E002C020E132E0F80138
:10150000B7FE07C060817181828193810C5F1F4F9C
:1015100006C06081718180E090E00E5F1F4FA401E2
:101520000E946F0BA82EA818FB2DFF777F2E76FE4A
:101530000BC0372D3E7FA51450F474FE0AC072FC18
:1015400008C0372D3E7E05C0BA2C372D03C0BA2CFB
:1015500001C0B52C34FF0DC0FE01EA0DF11D8081E4
:10156000803311F4397E09C032FF06C0B394B394BE
:1015700004C0832F867809F0B39433FD13C030FF85
:1015800006C05A2CB31418F4530C5B18B32CB314C4
:1015900068F4B70180E290E03C870E94370BB39477
:1015A0003C85F5CFB31410F43B1801C0312C34FF47
:1015B00012C0B70180E390E03C870E94370B3C8566
:1015C00032FF17C031FD03C088E790E002C088E514
:1015D00090E0B7010CC0832F867859F031FF02C02C
:1015E0008BE201C080E237FD8DE2B70190E00E94FE
:1015F000370BA51438F4B70180E390E00E94370B55
:101600005A94F7CFAA94F401EA0DF11D8081B70135
:1016100090E00E94370BA110F5CF332009F451CE92
:10162000B70180E290E00E94370B3A94F6CFF701C1
:101630008681978102C08FEF9FEF2C96E2E10C9498
:10164000E90BFC010590615070400110D8F78095BE
:1016500090958E0F9F1F0895FC016150704001907E
:101660000110D8F7809590958E0F9F1F08950F93C6
:101670001F93CF93DF93FB01238121FD03C08FEFE5
:101680009FEF28C022FF16C04681578124813581F3
:101690004217530744F4A081B1819D012F5F3F4F52
:1016A000318320838C93268137812F5F3F4F37838F
:1016B000268310C0EB01092F182F0084F185E02D3F
:1016C0000995892BE1F68E819F8101969F838E83F8
:1016D000812F902FDF91CF911F910F910895FA01E3
:1016E000AA27283051F1203181F1E8946F936E7F61
:1016F0006E5F7F4F8F4F9F4FAF4FB1E03ED0B4E052
:101700003CD0670F781F891F9A1FA11D680F791F92
:101710008A1F911DA11D6A0F711D811D911DA11DA3
:1017200020D009F468943F912AE0269F11243019B3
:10173000305D3193DEF6CF010895462F4770405D4E
:101740004193B3E00FD0C9F7F6CF462F4F70405DFD
:101750004A3318F0495D31FD4052419302D0A9F758
:10176000EACFB4E0A6959795879577956795BA9552
:10177000C9F700976105710508959B01AC010A2E18
:1017800006945795479537952795BA95C9F7620FEF
:10179000731F841F951FA01D08952F923F924F9293
:1017A0005F926F927F928F929F92AF92BF92CF92F1
:1017B000DF92EF92FF920F931F93CF93DF93CDB7FA
:1017C000DEB7CA1BDB0B0FB6F894DEBF0FBECDBF72
:1017D00009942A88398848885F846E847D848C8443
:1017E0009B84AA84B984C884DF80EE80FD800C814C
:1017F0001B81AA81B981CE0FD11D0FB6F894DEBF2F
:0C1800000FBECDBFED010895F894FFCF9E
:10180C00000000003D01A600D50084010601E400A3
:10181C00F800202564202C202564202C2025642011
:08182C002C256420000D0A00C8
:107E0000112484B714BE81FFF0D085E080938100F7
:107E100082E08093C00088E18093C10086E0809377
:107E2000C20080E18093C4008EE0C9D0259A86E02C
:107E300020E33CEF91E0309385002093840096BBD3
:107E4000B09BFECF1D9AA8958150A9F7CC24DD24C4
:107E500088248394B5E0AB2EA1E19A2EF3E0BF2EE7
:107E6000A2D0813461F49FD0082FAFD0023811F036
:107E7000013811F484E001C083E08DD089C08234E0
:107E800011F484E103C0853419F485E0A6D080C0E4
:107E9000853579F488D0E82EFF2485D0082F10E0AE
:107EA000102F00270E291F29000F111F8ED06801E7
:107EB0006FC0863521F484E090D080E0DECF843638
:107EC00009F040C070D06FD0082F6DD080E0C81688
:107ED00080E7D80618F4F601B7BEE895C0E0D1E017
:107EE00062D089930C17E1F7F0E0CF16F0E7DF06D8
:107EF00018F0F601B7BEE89568D007B600FCFDCFD4
:107F0000A601A0E0B1E02C9130E011968C91119780
:107F100090E0982F8827822B932B1296FA010C0160
:107F200087BEE89511244E5F5F4FF1E0A038BF0790
:107F300051F7F601A7BEE89507B600FCFDCF97BE46
:107F4000E89526C08437B1F42ED02DD0F82E2BD052
:107F50003CD0F601EF2C8F010F5F1F4F84911BD097
:107F6000EA94F801C1F70894C11CD11CFA94CF0C13
:107F7000D11C0EC0853739F428D08EE10CD085E9AC
:107F80000AD08FE07ACF813511F488E018D01DD067
:107F900080E101D065CF982F8091C00085FFFCCF94
:107FA0009093C60008958091C00087FFFCCF809118
:107FB000C00084FD01C0A8958091C6000895E0E648
:107FC000F0E098E1908380830895EDDF803219F02E
:107FD00088E0F5DFFFCF84E1DECF1F93182FE3DFCA
:107FE0001150E9F7F2DF1F91089580E0E8DFEE27F6
:047FF000FF270994CA
:027FFE00040479
:0400000300007E007B
:00000001FF